:020000040000fa
:080000000002040000000000f2
:020000040000fa
:040008007409000077
:020000040000fa
:04000c00e408000004
:020000040000fa
:0400100000090000e3
:020000040000fa
:04001400ac09000033
:020000040000fa
:04001800900900004b
:020000040000fa
:04001c002c0a0000aa
:020000040000fa
:040020001c090000b7
:020000040000fa
:040024002c0a0000a2
:020000040000fa
:040028002c0a00009e
:020000040000fa
:04002c00f0090000d7
:020000040000fa
:040030002c0a000096
:020000040000fa
:040034002c0a000092
:020000040000fa
:040038002c0a00008e
:020000040000fa
:04003c002c0a00008a
:020000040000fa
:040040002c0a000086
:020000040000fa
:040044000c0a0000a2
:020000040000fa
:040048002c0a00007e
:020000040000fa
:04004c002c0a00007a
:020000040000fa
:040050002c0a000076
:020000040000fa
:040054002c0a000072
:020000040000fa
:040058002c0a00006e
:020000040000fa
:04005c002c0a00006a
:020000040000fa
:040060002c0a000066
:020000040000fa
:040064002c0a000062
:020000040000fa
:040068002c0a00005e
:020000040000fa
:04006c002c0a00005a
:020000040000fa
:040070002c0a000056
:020000040000fa
:040074002c0a000052
:020000040000fa
:040078002c0a00004e
:020000040000fa
:04007c002c0a00004a
:020000040000fa
:040080002c0a000046
:020000040000fa
:040084002c0a000042
:020000040000fa
:040088002c0a00003e
:020000040000fa
:04008c00b0080000b8
:020000040000fa
:040090002c0a000036
:020000040000fa
:040094002c0a000032
:020000040000fa
:040098002c0a00002e
:020000040000fa
:04009c002c0a00002a
:020000040000fa
:0400a0002c0a000026
:020000040000fa
:0400a4002c0a000022
:020000040000fa
:0400a8002c0a00001e
:020000040000fa
:0400ac002c0a00001a
:020000040000fa
:0400b0002c0a000016
:020000040000fa
:0400b4002c0a000012
:020000040000fa
:0400b8002c0a00000e
:020000040000fa
:0400bc002c0a00000a
:020000040000fa
:0400c0002c0a000006
:020000040000fa
:0400c4002c0a000002
:020000040000fa
:0400c8002c0a0000fe
:020000040000fa
:0400cc002c0a0000fa
:020000040000fa
:0400d0002c0a0000f6
:020000040000fa
:0400d4002c0a0000f2
:020000040000fa
:0400d8002c0a0000ee
:020000040000fa
:0400dc00d009000047
:020000040000fa
:0400e0002c0a0000e6
:020000040000fa
:0400e4002c0a0000e2
:020000040000fa
:0400e8002c0a0000de
:020000040000fa
:0400ec002c0a0000da
:020000040000fa
:0400f0002c0a0000d6
:020000040000fa
:0400f4002c0a0000d2
:020000040000fa
:0400f8002c0a0000ce
:020000040000fa
:0400fc002c0a0000ca
:020000040000fa
:040100002c0a0000c5
:020000040000fa
:040104002c0a0000c1
:020000040000fa
:040108002c0a0000bd
:020000040000fa
:04010c002c0a0000b9
:020000040000fa
:040110002c0a0000b5
:020000040000fa
:040114002c0a0000b1
:020000040000fa
:040118002c0a0000ad
:020000040000fa
:04011c002c0a0000a9
:020000040000fa
:040120002c0a0000a5
:020000040000fa
:040124002c0a0000a1
:020000040000fa
:040128002c0a00009d
:020000040000fa
:04012c002c0a000099
:020000040000fa
:040130002c0a000095
:020000040000fa
:040134002c0a000091
:020000040000fa
:040138002c0a00008d
:020000040000fa
:04013c002c0a000089
:020000040000fa
:040140002c0a000085
:020000040000fa
:040144002c0a000081
:020000040000fa
:040148002c0a00007d
:020000040000fa
:04014c002c0a000079
:020000040000fa
:040150002c0a000075
:020000040000fa
:040154002c0a000071
:020000040000fa
:040158002c0a00006d
:020000040000fa
:04015c002c0a000069
:020000040000fa
:040160002c0a000065
:020000040000fa
:040164002c0a000061
:020000040000fa
:040168002c0a00005d
:020000040000fa
:04016c002c0a000059
:020000040000fa
:040170002c0a000055
:020000040000fa
:040174002c0a000051
:020000040000fa
:040178002c0a00004d
:020000040000fa
:04017c002c0a000049
:020000040000fa
:040180002c0a000045
:020000040000fa
:040184002c0a000041
:020000040000fa
:040188002c0a00003d
:020000040000fa
:04018c002c0a000039
:020000040000fa
:040190006206000003
:020000040000fa
:040194004808000017
:020000040000fa
:040198007c080000df
:020000040000fa
:04019c004407000014
:020000040000fa
:0401a0002c0a000025
:020000040000fa
:0401a4002c0a000021
:020000040000fa
:0401a8002c0a00001d
:020000040000fa
:0401ac002c0a000019
:020000040000fa
:0401b00078070000cc
:020000040000fa
:0401b4002c0a000011
:020000040000fa
:0401b8002c0a00000d
:020000040000fa
:0401bc00ac0700008c
:020000040000fa
:0401c0002c0a000005
:020000040000fa
:0401c4002c0a000001
:020000040000fa
:0401c8002c0a0000fd
:020000040000fa
:0401cc00e007000048
:020000040000fa
:0401d0002c0a0000f5
:020000040000fa
:0401d4002c0a0000f1
:020000040000fa
:0401d8002c0a0000ed
:020000040000fa
:0401dc002c0a0000e9
:020000040000fa
:0401e00014080000ff
:020000040000fa
:0401e4002c0a0000e1
:020000040000fa
:0401e8002c0a0000dd
:020000040000fa
:0401ec002c0a0000d9
:020000040000fa
:0401f0002c0a0000d5
:020000040000fa
:0401f4002c0a0000d1
:020000040000fa
:0401f8002c0a0000cd
:020000040000fa
:0401fc002c0a0000c9
:020000040000fa
:040200002c0a0000c4
:020000040000fa
:040204002c0a0000c0
:020000040000fa
:040208002c0a0000bc
:020000040000fa
:04020c002c0a0000b8
:020000040000fa
:040210002c0a0000b4
:020000040000fa
:040214002c0a0000b0
:020000040000fa
:040218002c0a0000ac
:020000040000fa
:04021c002c0a0000a8
:020000040000fa
:040220002c0a0000a4
:020000040000fa
:040224002c0a0000a0
:020000040000fa
:040228002c0a00009c
:020000040000fa
:04022c002c0a000098
:020000040000fa
:040230002c0a000094
:020000040000fa
:040234002c0a000090
:020000040000fa
:040238002c0a00008c
:020000040000fa
:04023c002c0a000088
:020000040000fa
:040240002c0a000084
:020000040000fa
:040244002c0a000080
:020000040000fa
:040248002c0a00007c
:020000040000fa
:04024c002c0a000078
:020000040000fa
:040250002c0a000074
:020000040000fa
:040254002c0a000070
:020000040000fa
:040258002c0a00006c
:020000040000fa
:04025c002c0a000068
:020000040000fa
:040260002c0a000064
:020000040000fa
:040264002c0a000060
:020000040000fa
:040268002c0a00005c
:020000040000fa
:04026c002c0a000058
:020000040000fa
:040270002c0a000054
:020000040000fa
:040274002c0a000050
:020000040000fa
:040278002c0a00004c
:020000040000fa
:04027c002c0a000048
:020000040000fa
:040280002c0a000044
:020000040000fa
:040284002c0a000040
:020000040000fa
:040288002c0a00003c
:020000040000fa
:04028c002c0a000038
:020000040000fa
:040290002c0a000034
:020000040000fa
:040294002c0a000030
:020000040000fa
:040298002c0a00002c
:020000040000fa
:04029c002c0a000028
:020000040000fa
:0402a0002c0a000024
:020000040000fa
:0402a4002c0a000020
:020000040000fa
:0402a8002c0a00001c
:020000040000fa
:0402ac002c0a000018
:020000040000fa
:0402b0002c0a000014
:020000040000fa
:0402b4002c0a000010
:020000040000fa
:0402b8002c0a00000c
:020000040000fa
:0402bc002c0a000008
:020000040000fa
:0402c0002c0a000004
:020000040000fa
:0402c4002c0a000000
:020000040000fa
:0402c8002c0a0000fc
:020000040000fa
:0402cc002c0a0000f8
:020000040000fa
:0402d0002c0a0000f4
:020000040000fa
:0402d4002c0a0000f0
:020000040000fa
:0402d8002c0a0000ec
:020000040000fa
:0402dc002c0a0000e8
:020000040000fa
:0402e0002c0a0000e4
:020000040000fa
:0402e4002c0a0000e0
:020000040000fa
:0402e8002c0a0000dc
:020000040000fa
:0402ec002c0a0000d8
:020000040000fa
:0402f0002c0a0000d4
:020000040000fa
:0402f4002c0a0000d0
:020000040000fa
:0402f8002c0a0000cc
:020000040000fa
:0402fc002c0a0000c8
:020000040000fa
:040300002c0a0000c3
:020000040000fa
:040304002c0a0000bf
:020000040000fa
:040308002c0a0000bb
:020000040000fa
:04030c002c0a0000b7
:020000040000fa
:040310002c0a0000b3
:020000040000fa
:040314002c0a0000af
:020000040000fa
:040318002c0a0000ab
:020000040000fa
:04031c002c0a0000a7
:020000040000fa
:040320002c0a0000a3
:020000040000fa
:040324002c0a00009f
:020000040000fa
:040328002c0a00009b
:020000040000fa
:04032c002c0a000097
:020000040000fa
:040330002c0a000093
:020000040000fa
:040334002c0a00008f
:020000040000fa
:100400006f7321002efd26000e0188000000000001
:10041000000020000000e000020032000001200087
:1004200020028800140007000d0407000000e0000f
:1004300003003a0040e524000100200002003700dc
:100440000000200001002000810f70000100320038
:100450000f000700000020000000e0000200320052
:1004600000000200000000003e5e020000000000ec
:100470000040da000000fe00202820000000e0001c
:1004800002003200002020009001880000000600d9
:10049000a1028800800478000000eb001f003700f4
:1004a000e284440054a0b4009905ba00e2844400f8
:1004b00054a0b4009906ba00e284440054a0b400e9
:1004c0000006eb00476fde00fd07b200ae018800ba
:1004d000636ce10003003a000ad801000000eb0061
:1004e0000e003700606ce10008003a00004deb00a0
:1004f0000a05e800020039003420ec000af0a000f0
:100500008b05e900f9ff3e00040037006168e10057
:10051000010032000086eb000b00070019c7ba008b
:100520001905ba000e04e00003003a000a00e000da
:10053000dbff3a0000000600fe07b200ae028800b2
:100540008a047800f5ff37000cd0a300e20f4d00bd
:100550001c003b0089027800354dba000a05e8000e
:10056000020039003420ec000af0a0008b05e900fd
:100570000f003200254dba000a05e80002003900dc
:100580003420ec000af0a0008b05e90008003200de
:100590000c00e0000600320015cdba000a05e800a4
:1005a000020039003420ec000af0a0008b05e900bd
:1005b0008984e80054a0b4000b00e000e2ff3a0098
:1005c000000006009902ba00055d78008b05e9007d
:1005d000f7ff3200c82ade00055d78008b05e900d0
:1005e000f3ff32000c00e000f1ff320019ddba0029
:1005f000eeff37000636040000000000103604004d
:1006000000000000a8360400000000004e34040082
:10061000000000006a320400000000006e32040096
:100620000000000072320400000000007632040076
:10063000000000007a320400000000007c32040058
:1006400000000000b6320400000000000433040083
:10065000000000002a330400000000002e330400d4
:1006600000000000323304000000000036330400b4
:1006700000000000fe350400000000009437040074
:10068000000000000836040000000000a43604004a
:100690000000000012360400000000003c3304009b
:1006a000000000008433040000000000cc3304008c
:1006b000000000000634040000000000a63704001b
:1006c000000000000835040000000000123504009e
:1006d00000000000fa2b0400000000005232040069
:1006e00000000000543204000000000056320400f4
:1006f0000000000058320400000000005a320400dc
:10070000000000005032040000000000c03004006f
:10071000000000006e2e040000000000502e0400b7
:10072000000000000a2b040000000000d62e040088
:1007300000000000cc2b040000000000e62e0400a6
:10074000000000005c32040000000000e22b040006
:1007500000000000ea2b040000000000b03004009c
:10076000000000006831040000000000562d040065
:1007700000000000d42b040000000000dc2b04006b
:1007800000000000a030040000000000122b040054
:1007900000000000b62b040000000000f22b040053
:1007a00000000000fc2b040000000000042c0400ea
:1007b000000000000c2c040000000000142c0400b9
:1007c000000000001c2c040000000000242c040089
:1007d000000000002c2c0400000000008c560400d7
:1007e00000000000cc560400000000005856040031
:1007f000000000007656040000000000505604007f
:10080000000000005456040000000000965604004a
:100810000000000084560400000000008e56040012
:10082000000000009e56040000000000385704003d
:1008300000000000ce56040000000000f656040040
:10084000000000001a570400000000001e570400ba
:1008500000000000125704000000000030570400a0
:10086000000000003a570400000000002257040076
:100870000000000026570400000000002a57040072
:1008800000000000b6570400000000004c570400b0
:100890000000000074570400000000009857040096
:1008a000000000009c570400000000009057040066
:1008b00000000000ae57040000000000b85704001c
:1008c00000000000a057040000000000a45704002e
:1008d00000000000a8570400000000003258040087
:1008e00000000000ca57040000000000f057040098
:1008f0000000000014580400000000001858040014
:10090000000000000c580400000000002a580400f9
:100910000000000034580400000000001c580400cf
:1009200000000000205804000000000024580400cb
:1009300000000000e83c040000000000ee3b040062
:1009400000000000223c040000000000323c0400d3
:10095000000000007e3c040000000000a23c0400f7
:1009600000000000ea3c0400000000004e3f0400cc
:10097000000000009a3e040000000000c43e040095
:1009800000000000183f040000000000e03c0400ec
:1009900000000000f83c040000000000ae58040015
:1009a00000000000465804000000000070580400d9
:1009b0000000000092580400000000009658040057
:1009c000000000009a580400000000009e58040037
:1009d00000000000a258040000000000a658040017
:1009e00000000000b0580400000000008a24040049
:1009f00000000000522204000000000076230400e2
:100a000000000000181f0400000000000e1f04007a
:100a100000000000221f040000000000261f040048
:100a2000000000002a1f0400000000002e1f040028
:100a300000000000e624040000000000561f04002f
:100a4000000000007e1f040000000000ae1f040034
:100a500000000000d61f0400000000006425040010
:100a600000000000b425040000000000062004007f
:100a70000000000034200400000000005c2004009e
:100a8000000000008420040000000000ac200400ee
:100a900000000000d420040000000000fc2004003e
:100aa0000000000024210400000000005421040084
:100ab000000000000426040000000000bc26040022
:100ac000000000002c28040000000000742704002f
:100ad00000000000e61e040000000000be1e04002e
:100ae00000000000e22a040000000000da210400f7
:100af0000000000002220400000000007c2104002d
:100b000000000000a4210400000000002a220400cc
:100b100000000000fa28040000000000742904000e
:100b200000000000ee29040000000000682a040014
:100b30000000000082240400000000008c24040057
:100b400000000000ca55040000000000885c04009a
:100b500000000000485c0400000000005c5c040031
:100b600000000000685c040000000000705c0400ed
:100b700000000000765c0400000000003c5c040003
:100b800000000000425c0400000000007a5c0400e9
:100b900000000000805c0400000000001a54040003
:100ba00000000000ac53040000000000d653040015
:100bb00000000000fc530400000000000454040086
:100bc0000000000054540400000000001c54040005
:100bd0000000000038540400000000000c54040021
:100be000000000001254040000000000ce49040080
:100bf00000000000ea49040000000000fc49040075
:100c000000000000164a040000000000204a040012
:100c100000000000284a040000000000364a0400da
:100c200000000000444a040000000000484a04009c
:100c3000000000004c4a040000000000644a040068
:100c4000000000006c4a040000000000ca4a0400d2
:100c500000000000d24a040000000000e44a040042
:100c600000000000424b040000000000744a040031
:100c700000000000a63f040000000000c03f040088
:100c800000000000e83f040000000000d63f040020
:100c900000000000fa3f0400000000002c420400a5
:100ca000000000003c42040000000000864b0400ed
:100cb00000000000a65a040000000000ca5d040005
:100cc000000000003600f800809fbe00829fbe003a
:100cd000849fbe00869fbe003200f8003400f800fa
:100ce00010002000a00188000020200000d0fe009d
:100cf00040b780000000e000010032000000010069
:100d00000ba8ab0056003a000c48ab0041003a007b
:100d10000ca8ab0048003a000d28ab0033003a00a5
:100d20000dc8ab0027003a000b68ab001b003a006f
:100d30000b88ab0009003a000b48a9003400f90009
:100d40003200f9004f03be004f02be004f01be004b
:100d50004f00be003600f9000040060071608000c0
:100d600032b780000200e000020032006000200084
:100d7000020001000b88a9000b48a9003400f9000b
:100d80003200f9004f03be004f02be004f01be000b
:100d90004f00be003600f900004006006160800090
:100da00032b780000200e000020032005000200054
:100db000020001000b68a9000b88ab00deff3200c7
:100dc000e6ff37009161800032b780000200e0004a
:100dd0000200320040002000020001000dc8a900fe
:100de0000b68ab00d2ff3200ecff3700416180009e
:100df00032b780000200e000020032003000200024
:100e0000020001000d28a9000dc8ab00c6ff32008a
:100e1000ecff3700d160800032b780000200e000b4
:100e20000200320010002000020001000c48a9005e
:100e30000ca8ab00b8ff32000161800032b780001f
:100e40000200e00002003200200020000200010049
:100e50000ca8a9000d28ab00b1ff3200e3ff37005a
:100e60008160800032b780000200e00002003200a2
:100e70000000eb00020001000ba8a9000c48ab0029
:100e8000a3ff3200e3ff37003600f800809fbe006a
:100e9000829fbe00849fbe00869fbe003200f80085
:100ea0003400f80010002000a0018800002020007d
:100eb00000d0fe008160800032b780000200e000b8
:100ec000020032000000eb00020001000ba8a900a4
:100ed0003400f9003200f9004f03be004f02be009b
:100ee0004f01be004f00be003600f9000040060072
:100ef0003600f800809fbe00829fbe00849fbe0027
:100f0000869fbe003200f8003400f8001000200078
:100f1000a00188000020200000d0fe00d1608000e9
:100f200032b780000200e000020032001000200012
:100f3000020001000c48a9003400f9003200f90059
:100f40004f03be004f02be004f01be004f00be0067
:100f50003600f900004006003600f800809fbe0011
:100f6000829fbe00849fbe00869fbe003200f800b4
:100f70003400f80010002000a001880000202000ac
:100f800000d0fe000161800032b780000200e00066
:100f90000200320020002000020001000ca8a9007d
:100fa0003400f9003200f9004f03be004f02be00ca
:100fb0004f01be004f00be003600f90000400600a1
:100fc0003600f800809fbe00829fbe00849fbe0056
:100fd000869fbe003200f8003400f80010002000a8
:100fe000a00188000020200000d0fe0041618000a8
:100ff00032b780000200e000020032003000200022
:10100000020001000d28a9003400f9003200f900a7
:101010004f03be004f02be004f01be004f00be0096
:101020003600f900004006003600f800809fbe0040
:10103000829fbe00849fbe00869fbe003200f800e3
:101040003400f80010002000a001880000202000db
:1010500000d0fe009161800032b780000200e00005
:101060000200320040002000020001000dc8a9006b
:101070003400f9003200f9004f03be004f02be00f9
:101080004f01be004f00be003600f90000400600d0
:101090003600f800809fbe00829fbe00849fbe0085
:1010a000869fbe003200f8003400f80010002000d7
:1010b000a00188000020200000d0fe0061608000b8
:1010c00032b780000200e000020032005000200031
:1010d000020001000b68a9003400f9003200f90099
:1010e0004f03be004f02be004f01be004f00be00c6
:1010f0003600f900004006003600f800809fbe0070
:10110000829fbe00849fbe00869fbe003200f80012
:101110003400f80010002000a0018800002020000a
:1011200000d0fe007160800032b780000200e00055
:101130000200320060002000020001000b88a900bc
:101140003400f9003200f9004f03be004f02be0028
:101150004f01be004f00be003600f90000400600ff
:101160003600f800809fbe00829fbe00849fbe00b4
:10117000869fbe00ddc5ab0007003a000328a9002a
:101180004f03be004f02be004f01be004f00be0025
:101190003600f90000400600f0ae80000000e000dc
:1011a0000100320000000100ddc5a9000328a900ec
:1011b0004f03be004f02be004f01be004f00be00f5
:1011c0003600f900004006003600f800809fbe009f
:1011d000829fbe00849fbe00869fbe00c068a9009b
:1011e00020002000ca2a07004f03be004f02be00a5
:1011f0004f01be004f00be003600f900004006005f
:101200003600f800809fbe00829fbe00849fbe0013
:10121000869fbe00c608a90070002000bc2a0700f7
:101220004f03be004f02be004f01be004f00be0084
:101230003600f900004006003600f800809fbe002e
:10124000829fbe00849fbe00869fbe00c488ab0004
:1012500009003a00c4a8ab001d003a00c508ab0065
:1012600015003a00c528ab000d003a00c408ab00d9
:1012700007003a00ffff3700c488a900a000200043
:10128000a32a0700c4a8ab00f4ff32001000370007
:10129000c408a900b00020009d2a0700f5ff370010
:1012a000c528a900d0002000992a0700c408ab0077
:1012b000f0ff3200f6ff3700c508a900c00020008b
:1012c000932a0700c528ab00e8ff3200f4ff37007f
:1012d000c4a8a900900020008d2a0700c508ab0013
:1012e000e0ff3200f4ff37003600f800809fbe00b8
:1012f000829fbe00849fbe00869fbe00c028a900ba
:101300000000eb00822a07004f03be004f02be0020
:101310004f01be004f00be003600f900004006003d
:101320003600f800809fbe00829fbe00849fbe00f2
:10133000869fbe00c088a90030002000742a0700e4
:101340004f03be004f02be004f01be004f00be0063
:101350003600f900004006003600f800809fbe000d
:10136000829fbe00849fbe00869fbe00e061210078
:10137000800778006063210000018800c048a90050
:1013800010002000622a07004f03be004f02be007b
:101390004f01be004f00be003600f90000400600bd
:1013a0003600f800809fbe00829fbe00849fbe0072
:1013b000869fbe0030b680000000e00001003200d1
:1013c0000000010005a8a9004f03be004f02be00a7
:1013d0004f01be004f00be003600f900004006007d
:1013e0003600f800809fbe00829fbe00849fbe0032
:1013f000869fbe0030b88000000001000028a900d0
:101400004f03be004f02be004f01be004f00be00a2
:101410003600f900004006003600f800809fbe004c
:10142000829fbe00849fbe00869fbe0040b88000a1
:101430000000e000010032000000010000e8a90007
:101440004f03be004f02be004f01be004f00be0062
:101450003600f900004006000040da000000fe00ff
:10146000000005000001be001b0007000470a7007b
:1014700003f0a10003f8a30013003a006509b100ce
:1014800010003200090035006928e1000200350033
:101490000100280000000500000040008180480095
:1014a0008502e900fcff3a0000000600f88f4200c8
:1014b000050035008100d1000080d3008502e800de
:1014c000fcff3a00000006008000eb000000050071
:1014d0006011b80027013700c70ade00f107b2002b
:1014e000f50fb20008003200e1cf420002003200e6
:1014f0000170a00024000500810f7000010032007f
:101500000408050044000500810f700002003a0045
:10151000140005008502e9000000400081c0480079
:10152000fcff3b000170a000240005006022b80011
:10153000060220000000d0008180d2000482d20088
:101540008582d2000000a0000202520083825a006d
:10155000030031000202420083824a000000a10021
:101560000603e900f3ff3a00000006000383680069
:101570000700280007036300470ade000480a1007b
:10158000c71ade000580a100f70f20000720e10048
:10159000420032000728e10040003200889fbe0070
:1015a0008a9fbe008c1f7800f107b200f307b200db
:1015b0000400e000640032000170a0000500e000bb
:1015c000680032000370a00085054200eb07b100ff
:1015d0000204b8000302b8008484440060854a0015
:1015e000020ab800848444000a854a00030ab8004d
:1015f00004054500040033000804d0008984d200ab
:101600000a85d2008b05e9006158e1003d003500f4
:101610000210200009016100030820008981610097
:10162000f70720008783640008867300c84cde003b
:10163000c853dd00878474004855de000300e000d5
:101640000600320082037600040032008904e800bc
:1016500060054d000a88a3000c003a00f70f200037
:101660000758e10044003d000a70a100c75ddd009d
:101670000a8575008a007300090078004f0678001b
:101680004f05be004f04be00000006000a05d10051
:101690008984d3008b05e800f0ff3700881f7800ad
:1016a0000604780090000700070278000001fd00a2
:1016b0008101fd008c00070087027800850372001d
:1016c0000778a300050032000001fd008101fd0044
:1016d0009f0007004f047800000006008503720099
:1016e0000748a30003003200f0ff2f00f1ff27009e
:1016f000f8ff37000000200001f827008880700004
:10170000f4ff3700880178004848dd0080817100cf
:101710004848de00c850dd0001007000c850de00ff
:10172000060478000b01780016000700888070001e
:10173000d2ff37000500e00005003200170020004e
:101740003a0007009dff370081037000f9ff3a005f
:10175000860078004f0678004f05be004f04be009b
:101760000000050083037100f9ff3200270020000c
:101770002e00070094ff370001f8270086807000d4
:10178000f4ff37000100e000260032006101110083
:101790007810e10023003c006022b8007010e100e6
:1017a0000400350080027800010078008000eb0022
:1017b000700151000200e0000900340070031100c4
:1017c000062add00822ade008603dd0087827200a1
:1017d0000200de00860bdd00070070008208de00dc
:1017e00084817100f4ff270004826200848171000b
:1017f00004002800848262006102600005f0a600f7
:101800000000060004827100070032000000e800ba
:10181000e0804800000006000002be006000b80042
:10182000efff37006000b80000000600889fbe0090
:101830000004eb006138e10016003a000100e0000e
:1018400008003a00c800de004800dd0088002000e3
:101850000100e00003003a00c800de004800dd009f
:10186000680444008184cf00e984540006003400f9
:101870008908dd00f08314008703de008780700094
:101880000900dd0009044400610214004f04be0099
:10189000000006000300e00008003a00c811de0066
:1018a0004811dd00880020000300e00003003a003a
:1018b000c811de004811dd00680444008384cf00b5
:1018c000e9845400060034008919dd00f083140017
:1018d0008713de00878171000911dd0009044400cf
:1018e000e1021400e9ff37002700200001f0a70003
:1018f00017002000470bde00f60fb2000400320094
:101900000643e8000a0032004702b3000000060068
:1019100001037800f607b2000603700002003a00e7
:101920000703b300000006008702b30000000600b2
:1019300001037800f607b2000603700002003200cf
:101940000770a000000006000760a000000006006d
:101950000478a300040032000578a30003003200dd
:101960000168a30001003a000200be000160a0006f
:1019700000000600889fbe008a9fbe0000827000a3
:101980000402710004827100260032000004be00cf
:101990000200be006011b8006b0920009502200013
:1019a0000182cf000a0039000541b1000082cf005a
:1019b000070039000541b1000982cf000400390059
:1019c0000541b1000882cf00010039000541b10096
:1019d00005425200120032000a003b008281710071
:1019e000610164008100d1000080d3008984d300ac
:1019f0000884d3008b05e8000442e800f7ff3a00b2
:101a0000070037000804440089844c0000004800a7
:101a1000818048008b05e9000442e900f9ff3a00a3
:101a2000030007004f05be004f04be000000060083
:101a300081002000618055000b003d000b0020005c
:101a400061fe2f000100e1001d0034008281710061
:101a5000610164008904d1000884d3000000e8001b
:101a6000faff3a007100200061006400030070007a
:101a7000020060000900320061044400e0844c0070
:101a80000988a500050032008b05e8006808e10020
:101a900002003a008904d1000884d300f20f20002c
:101aa0000258e10005003d00c75ddd00f907b20006
:101ab0008980750008007800000006000bf82700f8
:101ac0008b007800000005008001e90002814000e1
:101ad000828f500001003a0000000600b1697800d2
:101ae000fbff37000000fa0082ff2f000f014100ca
:101af000cfb897007d0107000080fa0000000600c3
:101b0000060007005b000700bd000700e5000700b6
:101b1000910007009a0407002c043700e48747006f
:101b2000889fbe008a9fbe008c9fbe008e1f7800db
:101b300000067800010478009106900021059000cd
:101b4000110778008ebf9f00b10590003202be00e1
:101b50002203be000400be000601be004f98de0056
:101b6000e10460000900e0003f0032006002120062
:101b7000e0821a0060031b00e0831b000d00e00000
:101b8000070035000e10a1008ebf9f000900e00085
:101b900003003a000fb897000028a3002700320086
:101ba0008a00e90003ff2f008f814100a20020007e
:101bb00008007800710307000900e00003003a0004
:101bc0008fb897000128a300200032000000e90030
:101bd000d1c2b3000900e00001003a00b1c2b30075
:101be0000081450001497800e80044001101e90046
:101bf00000015100808045000fba97008a017800eb
:101c00000c007800510107009c0090000188a3009f
:101c10000400320098009000810f500001003d0048
:101c2000010078004f0778004f06be004f05be0048
:101c30004f04be004f00b100000006000038a300b2
:101c4000d7ff3a008a007800d6ff37000138a3009a
:101c5000e5ff32000000e9008080450002c2b300c9
:101c600082487800e0ff37000d00e000c5ff3d002e
:101c7000c8ff37000200fa00889fbe008a9fbe009e
:101c80000005780001047800a1059000110078009b
:101c9000b0bf9f00b1049000910090000100e000ef
:101ca000020035000010a100b0bf9f003202be004c
:101cb0002203be0063ff2f008f81410082002000bd
:101cc0008b007800080078002c0307003fb99700cc
:101cd000f00061000100e000040032000000e900b3
:101ce0008080440002c3b300824878003fb9970067
:101cf000e80061000100e000040032000000e9009b
:101d00008080440002c2b30082487800e8004400aa
:101d10001101e90000015100808044003fba9700a2
:101d20008b0178000a007800080107009a009000f3
:101d30000188a3000400320098009000810f500039
:101d400001003d00010078004f05be004f04be00b9
:101d50000080fa0000000600ea874700889fbe0066
:101d60008a9fbe008e1f78008004780002077800ea
:101d70000300780082e2260053c72600f2b79f00d6
:101d800083bf9f00c296220092bf9f000041eb00dc
:101d9000c2f79f0011049000210590009105780082
:101da0000e00e00002003a00eefe2f000f07470091
:101db0000000e00002003a000e007800d4020700a4
:101dc0000800e00003003500880f500001003600d5
:101dd000080078000b0278008a0178000001780082
:101de0008e00780009007800d80007004f077800bf
:101df0004f05be004f04be00af00b100000006005a
:101e00000200fa00889fbe008a9fbe00000578008d
:101e100001047800a105900011007800b0bf9f0078
:101e2000b1049000910090000100e0000200350034
:101e30000010a100b0bf9f003202be002203be000e
:101e400063ff2f008f814100a20020008b007800eb
:101e500008007800c9020700e80044001101e90009
:101e600000015100808044003fba97008b01780048
:101e70000a007800b50007009a0090000188a300ce
:101e80000400320098009000810f500001003d00d6
:101e9000010078004f05be004f04be000080fa002c
:101ea00000000600fa874700889fbe008a9fbe0098
:101eb0008c9fbe008e1f7800e0af9f000105780068
:101ec00082bf9f00a3df9f0091009000aa069000b0
:101ed0009a057800ba0490000100e0005700350030
:101ee0000b10a1007081650082b79f000fb99700a9
:101ef0003202be002203be008fb197000300e00053
:101f000050003200e00f5200e08f5a00e00f5b00fb
:101f1000e08f5b004b0032000d86e90068816500b0
:101f2000f2af9f000200e000010032000c06e90061
:101f3000680045001004e900088044000048eb00f8
:101f400001077800e10f54000d003400e00f52004b
:101f5000e08f5a00e00f5b00e08f5b003b003a002f
:101f60000e00e00039003c00010056000e00400069
:101f70000000e000020034000b18a30033003a0018
:101f80000fb297000400e0000f0032000fba970074
:101f90003400be002401be00e00f5000e08f580066
:101fa000e00f5900e08f590007003200088044001c
:101fb000afd8970071f89f000884e90008804400ba
:101fc00001c3b300014878007fa997000200e00038
:101fd000040032000804e9000880440001c2b30094
:101fe00001487800680045001001e900080151002f
:101ff000888044000b0278008d0178006fa897005c
:1020000052000700efa99700930090000188a300f9
:10201000040032009a009000810f500001003d0042
:10202000010078004f0778004f06be004f05be0044
:102030004f04be00af01b1000000060011002000f7
:10204000a8ff37000d067800b4ff37000804e90048
:102050006f006200e90f500022003c000003b00056
:10206000afd997008301fb00f2fb2f000301410071
:10207000f90f510010003e00800178000350a000cd
:102080001306b100f98f51000b003e00d1b79f003d
:1020900094b79f00a5b79f00b6b79f00c7b79f0032
:1020a0009f030700cfb397003fb39700afb29700ed
:1020b0001fb29700dfb09700888144008049780004
:1020c0000e07e900430020008703d1000683d300f8
:1020d0008582d3000482d3008301e900faff3a002d
:1020e00098ff37007005b000ddff370082017800ef
:1020f00001017800f1ff270086023700889fbe00ab
:1021000000047800c0049000828f54000100360063
:10211000820478000900e0000a003200090178001a
:102120005800900068fe07006a00440010804400d8
:1021300050049800c8009000898450004904980019
:102140000048eb004f04be0000000600f287470085
:10215000889fbe008a9fbe008c9fbe008e1f7800a5
:1021600000057800010678000204be00e105620067
:102170000b00e00002003a00828f51000e003e008a
:10218000080178008c0078000a007800dbff070067
:10219000888f540008003e00880478000900780009
:1021a0004f0778004f06be004f05be004f04be002b
:1021b0002f01b10000000600888654000d0778004a
:1021c0000d017800f08f560001003600020120005a
:1021d0000102200020fe2f000f004000c501070073
:1021e000ef0f57000f003e004469de0000ff2f0094
:1021f0008091b9000d01410021fe2f008f80400029
:102200000a007800bdff07000b00e000e3ff3a0082
:10221000080178008c0078000a007800b7ff0700fa
:10222000deff37000201200021fe2f008f804000da
:102230000a007800b1ff070070075700e8ff370079
:102240000000050000000500000005008040eb00d4
:102250008181fb0083814100e27121000301410083
:10226000124278000404e00003003a00924090001b
:10227000014078000000060090017800934f520062
:1022800005003a00924090000308e800eacf5000b1
:10229000efff3600f6ff37008140e800fbff370014
:1022a0009400fa00889fbe008a9fbe008c9fbe00eb
:1022b000000578008204780091bf9f008005eb0044
:1022c0009fb897001104e000030132000000eb000a
:1022d00080b79f000081eb0092b79f00a0b79f00de
:1022e00000f62f000f004000b0b79f00000820004c
:1022f000c0b79f000004eb00088040001040780049
:102300000004e0000300320052c2b300824f5000cc
:1023100028003a000800e0000600320008017800ba
:102320000a00780075ff07009fb89700888040007a
:1023300091bf9f009fbe970050c2b3009d4f1000f9
:10234000df003a008d06e8009dbf9f001fb8970090
:1023500090407800b2c2b30082cf50001d0032001e
:1023600082cf500024003c0002c2b30082cf500054
:102370001b00320032c2b30082cf50001b0032007b
:10238000a2c2b30082cf500024003200bd02070079
:10239000a0b79f009fb897001100fb000003b10099
:1023a000e90f50002a003e008100e80091bf9f0025
:1023b000f8ff37000804e800cfff37008fb0970020
:1023c0000100a00081b79f000000e80090bf9f00bf
:1023d000deff37008fb097000120a000f9ff370023
:1023e0008fb097000130a000f6ff37008fb0970044
:1023f0000140a000f3ff3700d2c2b30082cf5000eb
:10240000eeff320002c3b30082cf5000dcff3a007f
:102410008fb097000110a000eaff37000000e8002d
:1024200090bf9f0019007800808ce90070b8970079
:10243000a0b79f000000e00005003d008fb09700ae
:10244000e180680081b79f000000ea00a0b79f000c
:102450000fb097000008a300020032000010a10096
:1024600080b79f009fb89700e0c2b300914f100063
:102470000e003a000000eb0090b79f000100e8005a
:1024800090bf9f0091419000a2c2b30082cf510043
:1024900026003a008180e80091bf9f001900780073
:1024a000808ce90070b8970090b79f0020ff2f0044
:1024b0000f00400065ff0700004678001fb8970036
:1024c0001000fb008f02070091062000810f5000d2
:1024d00087003200810f500036003c00310620009a
:1024e000810f5000e4003200810f500019003c00c1
:1024f00051022000810f5000f1003200110620002f
:10250000810f50005c0032009dbf9f000000eb0077
:1025100080b79f00a0b79f000080eb0090b79f009e
:102520000002eb008001eb00ed00370055020700d0
:1025300090b79f009fb897001100fb000003b10007
:10254000e90f5000d9ff3e008100e80091bf9f00d5
:10255000f8ff370041062000810f50006400320070
:1025600071062000810f5000e7ff3c008c80fb00cb
:1025700009017800a0fe2f000f0040006f02070045
:102580000000e000b80032001fb897008000e800ab
:1025900091bf9f0090417800a2fe2f000f014100e3
:1025a00001fe2f008f8040000a00780025ff070001
:1025b0004200370001072000810f500083003200e5
:1025c000810f500018003c00e1062000810f5000f0
:1025d0009f003200f1062000810f5000caff3a0030
:1025e0008c80fb00890178000001eb00a0fe2f0029
:1025f0000f004000750107000000e0009a00320063
:102600001fb897000000e80090bf9f00a2fe2f00b7
:102610000f01410001fe2f008f8040000a0078006a
:1026200094fd07002500370051072000810f50005e
:102630004100320081072000810f5000500032001d
:1026400031072000810f5000afff3a0000c8b300ef
:10265000804f560084003a009fb897008100e80040
:1026600091bf9f0019007800808ce90070b9970035
:102670008001eb008d0037008c80fb0009017800a1
:10268000a0fe2f000f0040002c0207000000e00019
:10269000750032001fb897008000e80091bf9f00ce
:1026a00090417800a2fe2f000f01410001fe2f0093
:1026b0008f8040000a007800e2fe0700000444001a
:1026c00008844500888f550088003400b00420003d
:1026d000a0b988008085eb000b0078004f06be0093
:1026e0004f05be004f04be000080fa000000060047
:1026f0008c80fb008901780012002000a0fe2f00d2
:102700000f004000310107000000e00056003200d9
:102710001fb897000000e80090bf9f00a2fe2f00a6
:102720000f01410001fe2f008f8040000a00780059
:10273000fafc0700e1ff37008c80fb00890178007c
:102740000001eb00a0fe2f000f0040001f0107005a
:102750000000e000440032009fb897008100e800cc
:1027600091bf9f00a2fe2f000f01410001fe2f002c
:102770008f8040000a007800a1fd0700cfff3700de
:102780008c80fb00890178000001eb00a0fe2f0087
:102790000f0040000d0107000000e0003200320091
:1027a0001fb897008000e80091bf9f00904178001b
:1027b000a2fe2f000f01410001fe2f008f8040007c
:1027c0000a007800b7fd0700bcff370089017800d8
:1027d0000001eb00010f2000a0fe2f000f004000c1
:1027e000fa0007000000e0001f0032001fb8970049
:1027f0000000e80090bf9f005fb09700efb0970027
:102800007fb197008fb99700e00f5000e08f58001c
:10281000e00f5900e08f59000b003a008fb6970087
:102820002fb6970060712100390007000d02780073
:102830008c01780000017800617121000a007800a5
:1028400042fe07009dff370083c7b300d8ff370063
:10285000088145008c80fb0089017800a0fe2f00d4
:102860000f004000460107009fb897008100e80074
:1028700091bf9f0092ff370000c8b300804f560001
:10288000f9ff3a001fb897000000e80090bf9f00d2
:1028900019007800808ce90060f89700a0ef9f0095
:1028a00013002000a2fe2f000f01410001fe2f00a7
:1028b0008f8040000a00780027fd07007fff370067
:1028c00000c8b300804f5600e7ff3a001fb89700da
:1028d0000000e80090bf9f000fb29700afb19700d3
:1028e00012002000c1712100d4ff37008805780054
:1028f00073fe37000200e00004003200800178001f
:102900000201e900028009008159780000000600f8
:10291000800078000108a3000f003a00010278004f
:10292000b4017800f2ef2f00030141008381ea0037
:102930000301610003082800030161000200e000b8
:102940000c003200010178003204e0000500320082
:1029500082007800fbff3700010178003204e000bc
:1029600002003a000080500000000600820078005b
:10297000e8ff370084007800e8ff3700ee87470063
:10298000889fbe008a9fbe008c9fbe008e1f78006d
:10299000d4b79f00e5b79f00f6b79f0087bf9f00a1
:1029a000b1b79f000206be00300790009300780088
:1029b000c1b79f0090059000680040001000e9003a
:1029c000000478000b00e00001003d001b00200027
:1029d000000047000048eb000b05780019002000bc
:1029e0000800e0001d003c000900e0004700320044
:1029f000080078004f0778004f06be004f05be0064
:102a00004f04be00ef00b100000006006162b90093
:102a1000612bb9005fb09700efb097007fb19700ce
:102a20008fb997004a030700270037006162b90099
:102a3000612bb9005fb09700efb097007fb19700ae
:102a40008fb997003b030700d0b79f00e1b79f0005
:102a5000f2b79f0083bf9f00e1ff37005fb0970090
:102a6000efb097007fb197008fb99700e00f50004b
:102a7000e08f5800e00f5900e08f59000a003a003b
:102a80000a00e00008003c00bfb097000b80500037
:102a90000a0040000000e000d3ff34004fb197006f
:102aa0000218a300d0ff32000804e900ea0f560024
:102ab000d6ff3a005fb09700efb097007fb1970064
:102ac0008fb997006a020700800478000800470069
:102ad00002c3b30002c844000a05e900ea0f560029
:102ae000d2ff3a005fb09700efb097007fb1970038
:102af0008fb9970005020700d0b79f00e1b79f008c
:102b0000f2b79f0083bf9f00b5ff37001d40a100b3
:102b1000b7ff37001000fa00010278008200780049
:102b20000081eb0082bf9f002210200092bf9f0017
:102b30000000e00001003a000f80e900a0bf9f0004
:102b4000b4bf9f008002eb000400e00001003200ef
:102b50008402e900c5bf9f000400e00005003d00bd
:102b6000b0042000a0b988000080eb000080fa00cb
:102b7000000006000048eb00e0bf9f00d0bf9f00b0
:102b80000301780000ff2f000f0040000100070044
:102b9000f6ff37000200fa00881f78000004780072
:102ba000e2bf9f00c2ff2f000f014100bcfd0700e4
:102bb000980090000148a300010032000080eb0063
:102bc0004f0478000080fa0000000600840820000e
:102bd000848f500037003200848f500018003c0072
:102be00014082000848f500042003200848f50006f
:102bf00004003c0004082000848f50005a0032007a
:102c00000000050024082000848f5000430032009b
:102c100044082000848f5000f9ff3a001302780026
:102c20008480e9000200e00074ba9700810978000e
:102c300049003a008002eb006033b80026003700fc
:102c4000040a2000848f500040003200848f50001e
:102c50000e003c0004092000848f5000e8ff3a0079
:102c600093007800e88050003102be002103be00ce
:102c7000810978000498be000690be001000200074
:102c80000200e0003700320000000600020c2000c5
:102c9000828f500003003200020f2000828f50000c
:102ca000d7ff3a00930078008189e90071ba970054
:102cb000e0ff3700130278008480e9000200e000a2
:102cc00074ba970081097800060032000402fb0004
:102cd000cfa2de00612bb9000498be000690be00b2
:102ce000100005000482fb008002eb006033b80096
:102cf000f9ff3700930078004102be008109780097
:102d00000200e000030032004fabde0086037800d3
:102d1000f1ff37006033b800efff37009300780011
:102d2000e88050003102be002103be008109780016
:102d30000498be000690be00100020000200e000d3
:102d40000100320000000600000006009300780039
:102d50008189e90071ba9700cfa2de00612bb9002a
:102d6000ddff370000000600930078000182e900d3
:102d70008409780071ba97000200e000acff3700c8
:102d800044082000848f50000b003200848f5000d4
:102d90000f003c0014082000848f50001a003200fd
:102da00024082000848f50001e00320004082000f8
:102db000848f50000e003a00930078008189e9006a
:102dc000f1b89700010878008208780014003700f5
:102dd00004092000848f500021003200848f5000ad
:102de00004003c0084082000848f5000160032004c
:102df00000000500040a2000848f5000eeff32001e
:102e0000040c2000eaff3700930078008189e90074
:102e1000f1b89700010878006111b9008288be00fe
:102e200010000500930078008189e900f1b897004f
:102e3000010878006112b900612bb9008498be00c6
:102e40008690be00f6ff3700930078008189e90084
:102e5000f1b897000108780082487800f0ff370049
:102e6000930078008189e90071ba9700040878001e
:102e70006110b9006109b900009abe000292be005b
:102e8000e7ff370080007800104178000000e8007c
:102e900003c2b300834f5100faff32008201fb00ee
:102ea000e9815100e48f5100f6ff3600b0c2b30053
:102eb0008001eb00804f510004003200d0c2b3000b
:102ec000804f510002003a00130020008100e8000a
:102ed0008100e9000000eb0002003700ea00b900c1
:102ee000020050005101fb000203b100e90f510044
:102ef000faff36000300e00001003a000000ea009b
:102f000000000600f1fb2f0080804000f98f500088
:102f100001003e000050a00000000600f9ff37004d
:102f2000f1f92f0080804000f98f500001003e0031
:102f3000f005b20000000600f9ff3700881f780096
:102f4000000478000000eb0003082000838f50008d
:102f50001000350010082000808f50000f00340052
:102f60000000eb0033082000838f500009003a0076
:102f7000120078006809500040ba9700d0ba970054
:102f800060bb9700f0bb9700049cbe000694be0097
:102f9000100020004f0478000000060012007800a6
:102fa00064095000f0b8970060b89700b8000700b7
:102fb000009cbe000294be00f5ff3700840820008c
:102fc000848f500037003200848f500018003c007e
:102fd00014082000848f500042003200848f50007b
:102fe00004003c0004082000848f50006000320080
:102ff0000000050024082000848f500043003200a8
:1030000044082000848f5000f9ff3a001302780032
:103010008480e9000200e00074ba9700810978001a
:103020004f003a008002eb006033b8002600370002
:10303000040a2000848f500046003200848f500024
:103040000e003c0004092000848f5000e8ff3a0085
:1030500093007800e88050003102be002103be00da
:10306000810978000498be000690be001000200080
:103070000200e0003d00320000000600020c2000cb
:10308000828f50002d003200020f2000828f5000ee
:10309000d7ff3a00930078008189e90071ba970060
:1030a000e0ff3700130278008480e9000200e000ae
:1030b00074ba970081097800060032000402fb0010
:1030c000cfa2de00612bb9000498be000690be00be
:1030d000100005000482fb008002eb006033b800a2
:1030e000f9ff3700930078004102be0081097800a3
:1030f0000200e000030032004fabde0086037800e0
:10310000f1ff37006033b800efff3700930078001d
:10311000e88050003102be002103be008109780022
:103120000498be000690be00100020000200e000df
:10313000010032000000060000000600c1ff2f0061
:1031400093894000930078001102be006033b800fc
:10315000ddff3700930078008189e90071ba97009c
:10316000cfa2de00612bb900d7ff370000000600b8
:10317000930078000182e9008409780071ba970011
:103180000200e000a6ff370044082000848f5000b2
:1031900030003200848f50000a003c0014082000e8
:1031a000848f50001b00320024082000848f5000c0
:1031b0001f00320004082000848f500025003200d8
:1031c0000000050004092000848f50002700320011
:1031d000848f500009003c0084082000848f500038
:1031e000f7ff3a00930078008189e900f1b8970071
:1031f000010878008248780015003700040a200092
:10320000848f500013003200040c2000848f500083
:10321000ebff3a00930078008189e900f1b897004c
:10322000010878006111b9008288be0008003700eb
:10323000930078008189e900f1b8970001087800cf
:103240006112b900612bb9008498be008690be005f
:1032500010000500930078008189e900f1b897001b
:103260000108780082087800f9ff370093007800a1
:103270008189e90071ba9700040878006110b900eb
:103280006109b900009abe000292be00f0ff37004b
:103290008103780090f807000001be006000b800cc
:1032a0000478a30013003a006220e10015003e00fc
:1032b0000d0039008301d1000281d3008180d30049
:1032c0008301d1000281d3008180d3008301d1002a
:1032d0000281d3008180d3000538b000c42add000c
:1032e000f300b2008381720007f0a70003f0a00092
:1032f0000000060083ff2700020020006110b900d3
:10330000f9ff370003ff2700f7ff37001200fa002c
:10331000f4ff2f00050020006033b8000400e10036
:103320000588e1000690e1000798e10007003e00f3
:10333000a4002000050009000480d8008000eb00f4
:103340006011b8000080fa00000006008e1f7800af
:10335000d4cc2c00c5cc2c00c6cc2c00c7cc2c0067
:10336000250007004e009000de0090006e019000e6
:10337000fe019000340020008301d1000281d300bf
:103380008180d3000080d3000402e900faff3a00f4
:103390008f87e900ebff37000504b8001e1f4400cb
:1033a000050db8001e8f4c000c86d2001e1f450074
:1033b0000514b8001e8f4d008d86d2000c86d300f8
:1033c0001e1f4c00051db8001e8f4c000c86d2003d
:1033d0008d86d3001e1f4d009e854d008d86d20028
:1033e0000c86d300609f4d00608f4e008006eb007e
:1033f0004fb7970000000600889fbe008a9fbe005e
:103400008c9fbe008e1f78006066b8006fb7970073
:103410000404b800081f7800040db8000a9f440097
:103420000414b800089f4d00041db8000a9f4c000a
:10343000609f4d00608f4e006fb797006207470096
:10344000d5ff07006407470086027800d2ff070017
:103450006607470087027800cfff07004f07780014
:103460004f06be004f05be004f04be000000060020
:103470001200fa00889fbe008a9fbe000205be00af
:103480000004be00f0ff2f00010020006011b80012
:103490000040e10001c8e10002d0e10003d8e100f2
:1034a00009003e00a2002000050009000284d800a7
:1034b0006108b8006011b8004f05be004f04be009f
:1034c0000080fa00000006000800be000a01be00ed
:1034d0008eff07008e1f7800a4002000050020004a
:1034e0006033b800c4ff07003e005400be805c009b
:1034f0003e015d009e815d006e00b1008f87e90096
:10350000edff37004f02b000889fbe008a9fbe00cb
:103510008c9fbe008e1f7800d4b79f00e5b79f0038
:10352000f6b79f0087bf9f0004042000c4b79f0028
:103530000006eb006044b8006055b80088b79f00f3
:1035400099b79f00aab79f00bbb79f000c07460022
:103550000fb497009fb497002fb59700bfb59700a1
:103560004f5ade008e0672000802440089824c0029
:103570000a034d008b834d004f1cde006055b800e0
:103580008004eb0008027200898272000a03730053
:103590008b837300c4af9f00d5af9f00e6af9f0041
:1035a000f7af9f00000440008184480002054900f5
:1035b0008385490088af9f0099af9f00aaaf9f0005
:1035c000bbaf9f000800be000a01be000c00e00077
:1035d0002d003d00450007000440e10005c8e10062
:1035e00006d0e10007d8e1003e0036000d06e800f5
:1035f0000c00e0000b00350010002000010020004e
:103600006011b8000fac97009fac97002fad9700ea
:10361000bfad970000007400818074000201750046
:1036200083817500cfb497008904e900c9b79f0072
:103630000900e000c5ff3a000c00e00005003d0075
:103640000fb297009fb297002fb39700bfb39700b8
:1036500026000700cfa497000900e00004003a000c
:103660000fb097009fb097002fb19700bfb19700a0
:103670004f0778004f06be004f05be004f04be0046
:103680004f02b10000000600250007005fb497005c
:10369000efb497007fb597008fbd970008025200e6
:1036a00089825a000a035b008b835b0084b79f000a
:1036b00095b79f00a6b79f00b7b79f001c002000da
:1036c000170007000820e10009a8e1000ab0e100a6
:1036d0000bb8e100010039000006eb000c86560033
:1036e000c3ff37000d067800c1ff37003fb49700d5
:1036f000cfb497005fb59700efb59700080242007e
:1037000089824a000a034b008b834b00e4af9f0081
:10371000f5af9f0086b79f0097b79f000000060097
:103720002faa9700bfaa97004fab9700dfab970077
:1037300000000600881f780018002000881f78000d
:1037400070ff07008f87e9004f0478000000060033
:10375000801feb006bff07008f87e9000000060069
:10376000881f7800e00f5000e08f5800e00f5900ec
:10377000e08f59000c003d001100070018002000e8
:103780001400070002003d00170007000004eb00d2
:10379000e8ff07000800e000010032000800070011
:1037a0004f047800000006000004eb000900070049
:1037b000f7ff3d000c00070018002000f4ff370061
:1037c00060001000e080180060011900e08119001d
:1037d00000000600e00f5200e08f5a00e00f5b008f
:1037e000e08f5b000000060060021200e0821a0019
:1037f00060031b00e0831b0000000600889fbe00e2
:103800008a9fbe00e00f5200e08f5a00e00f5b007d
:10381000e08f5b0004003d0060021200e0821a00ad
:1038200060031b00e0831b000004eb00e00f50006e
:10383000e08f5800e00f5900e08f590002003d0072
:103840000800070018002000c1ff07000800e00082
:1038500001003200030007004f05be004f04be0008
:103860000000060060001000e080180060011900f0
:08387000e081190000000600d0
:020000040000fa
:10387800303000002e300000312e000030300000c3
:10388800303000000020000020200000204400000c
:10389800414200002020000020200000000d000010
:1038a8004441000042200000626f00006172000085
:1038b8006420000068650000617400002073000047
:1038c800696e00006b200000546500006d700000f8
:1038d80065720000617400007572000065200000c8
:1038e8006973000020250000642000006465000062
:1038f800677200006565000020430000656c0000e9
:10390800736900007573000020200000000d00009e
:1039180020440000756100006c2000004163000035
:10392800746900007665000020420000726900009a
:1039380064670000652e0000203600003442000055
:10394800206600006978000065640000206c0000b3
:10395800656e000067740000682000004c6f00006e
:10396800672e0000204d0000736700004e6f0000b6
:103978002025000064200000000d00002044000005
:10398800756100006c20000041630000746900004c
:10399800766500002042000072690000646700003c
:1039a800652e0000204100004654000045520000ea
:1039b80020520000455300004554000020530000e9
:1039c80059530000544500004d2000005354000096
:1039d8004152000054550000502000002000000013
:1039e8005222000076230000181f00000e1f00005e
:1039f800221f0000261f00002a1f00002e1f0000a3
:103a0800e6240000561f00007e1f0000ae1f0000c5
:103a1800d61f000064250000b42500000620000021
:103a2800342000005c20000084200000ac2000004e
:103a3800d4200000fc2000002421000054210000b4
:103a480004260000bc2600002c2800007427000073
:103a5800000000000000000000000000000000005e
:103a68000000000000000000e61e0000be1e00006e
:103a7800e22a0000da210000022200007c21000076
:103a8800a42100002a220000fa280000742900005e
:103a9800ee290000682a00008224000000000000cf
:103aa8008c24000000000000000100000203000058
:103ab8000405000006070000080c000010140000b0
:103ac8001820000030400000c03000006e2e0000ba
:103ad800502e00000a2b0000d62e0000cc2b000030
:103ae800e62e00005c320000e22b0000ea2b00000a
:103af800b030000068310000562d0000d42b0000c3
:103b0800dc2b0000a0300000122b0000b62b0000b8
:103b1800f22b0000fc2b0000042c00000c2c0000f1
:103b2800142c00001c2c0000242c00002c2c00005d
:103b3800a83600004e3400006a3200006e320000e1
:103b480072320000763200007a3200007c320000c7
:103b5800b6320000043300002a3300002e33000080
:103b68003233000036330000fe3500009437000081
:103b7800be9d000008360000a43600001236000082
:103b8800000000003c33000084330000cc33000008
:103b980006340000a6370000083500001235000082
:103ba800ce490000ea490000fc490000164a00001e
:103bb800204a0000284a0000364a0000444a000013
:103bc800484a000000000000000000004c4a0000c5
:103bd800644a00006c4a0000ca4a0000d24a000049
:103be800e44a0000424b0000744a00000000000054
:103bf80000000000000000000000000000000000bd
:103c080000000000ee3b0000223c0000323c0000b7
:103c18007e3c0000a23c0000ea3c00004e3f000051
:103c28009a3e0000c43e0000183f0000e03c00003f
:103c3800f83c0000ce560000f65600001a57000067
:103c48001e57000012570000305700003a57000076
:103c58002e9e000022570000265700002a57000019
:103c68004c57000074570000985700009c570000fc
:103c780090570000ae570000b8570000449e00005f
:103c8800a0570000a4570000a8570000ca5700001a
:103c9800f057000014580000185800000c58000095
:103ca8002a580000345800005a9e00001c58000092
:103cb80020580000245800004658000070580000a2
:103cc80092580000965800009a5800009e5800002c
:103cd8000000000000000000a2580000a6580000e4
:103ce800b0580000485c00005c5c0000685c0000a4
:103cf800705c0000765c00003c5c0000425c0000e8
:103d08007a5c0000805c000000000000ac530000fa
:103d1800d6530000fc530000045400005454000023
:103d28001c540000385400000c54000012540000c9
:103d3800000000005856000076560000505600005b
:103d480054560000965600000000000084560000fb
:103d58008e5600009e560000a63f0000c03f00009f
:103d6800e83f0000d63f0000fa3f00002c42000068
:043d78003c420000c9
:020000040000fa
:103d7c00e20f500010003200e20f50000600360037
:103d8c00e30f50000a003200e40f500006003a0026
:103d9c00cde3a80000000600e10f500003003a003c
:103dac002be3a8000000060000000600000006003f
:103dbc0097e3a8000000060061e3a80000000600dd
:103dcc00e20f500010003200e20f500006003600e7
:103ddc00e30f50000a003200e40f500006003a00d6
:103dec00cde3a90000000600e10f500003003a00eb
:103dfc002be3a900000006000000060000000600ee
:103e0c0097e3a9000000060061e3a900000006008a
:103e1c002be3a80061e3a80097e3a800cde3a8007a
:103e2c00000006002be3a90061e3a90097e3a900b9
:103e3c00cde3a90000000600501888000000060021
:103e4c0040188800000006003018880000000600aa
:103e5c00e20f500010003200e20f50000600360056
:103e6c00e30f50000a003200e40f500006003a0045
:103e7c00a11f880000000600e10f500003003a006b
:103e8c00911a8800000006000000060000000600e1
:103e9c00f11d880000000600411c8800000006008f
:103eac00e20f500010003200e20f50000600360006
:103ebc00e30f50000a003200e40f500006003a00f5
:103ecc00811f880000000600e10f500003003a003b
:103edc00711a8800000006000000060000000600b1
:103eec00d11d880000000600211c8800000006007f
:103efc00e20f500013003200e20f500007003600b2
:103f0c00e30f50000c003200e40f500008003a00a0
:103f1c00dd210a00ce03000000000600e10f500076
:103f2c0004003a00dd210a002c030000000006000a
:103f3c000000060000000600dd210a0098030000c6
:103f4c0000000600dd210a006203000000000600ec
:103f5c00e20f500010003200e20f50000600360055
:103f6c00e30f50000a003200e40f500006003a0044
:103f7c00711f880000000600e10f500003003a009a
:103f8c00611a880000000600000006000000060010
:103f9c00c11d880000000600111c880000000600ee
:103fac00e20f500013003200e20f50000700360001
:103fbc00e30f50000c003200e40f500008003a00f0
:103fcc00ba210a00d203000000000600e10f5000e5
:103fdc0004003a00ba210a00300300000000060079
:103fec000000060000000600ba210a009c03000035
:103ffc0000000600ba210a0066030000000006005b
:10400c00e20f50000f003200e20f500007003600a4
:10401c00e30f50000e003200e40f500008003a008d
:10402c00baa00a00d203000000000600e10f500005
:10403c0003003a00baa00a0030030000000006009a
:10404c0000000500baa00a0066030000000006008c
:10405c00baa00a009c03000000000600e20f50000a
:10406c0010003200e20f500006003600e30f500043
:10407c000a003200e40f500006003a00d3a3a80057
:10408c0000000600e10f500003003a0031a3a80025
:10409c000000060000000600000006009da3a8001a
:1040ac000000060067a3a80000000600e20f500005
:1040bc0010003200e20f500006003600e30f5000f3
:1040cc000a003200e40f500006003a00d383a80027
:1040dc0000000600e10f500003003a003183a800f5
:1040ec000000060000000600000006009d83a800ea
:1040fc00000006006783a80000000600e20f5000d5
:10410c0010003200e20f500006003600e30f5000a2
:10411c000a003200e40f500006003a00d3a3a900b5
:10412c0000000600e10f500003003a0031a3a90083
:10413c000000060000000600000006009da3a90078
:10414c000000060067a3a90000000600e20f500063
:10415c0010003200e20f500006003600e30f500052
:10416c000a003200e40f500006003a00d383a90085
:10417c0000000600e10f500003003a003183a90053
:10418c000000060000000600000006009d83a90048
:10419c00000006006783a90000000600e20f500033
:1041ac0010003200e20f500006003600e30f500002
:1041bc000a003200e40f500006003a00e11f8800ac
:1041cc0000000600e10f500003003a00d11a8800ed
:1041dc00000006000000060000000600311e8800ea
:1041ec0000000600811c880000000600e20f500051
:1041fc0010003200e20f500006003600e30f5000b2
:10420c000a003200e40f500006003a00f11f88004b
:10421c0000000600e10f500003003a00e11a88008c
:10422c00000006000000060000000600411e880089
:10423c0000000600911c880000000600e20f5000f0
:10424c0013003200e20f500007003600e30f50005d
:10425c000c003200e40f500008003a00e11f880007
:10426c00f11f880000000600e10f500004003a0026
:10427c00d11a8800e11a8800000006000000060030
:10428c0000000600311e8800411e88000000060058
:10429c00811c8800911c880000000600e20f500071
:1042ac0010003200e20f500006003600e30f500001
:1042bc000a003200e40f500006003a00b11f8800db
:1042cc0000000600e10f500003003a00a11a88001c
:1042dc00000006000000060000000600011e880019
:1042ec0000000600511c880000000600e20f500080
:1042fc0010003200e20f500006003600e30f5000b1
:10430c000a003200e40f500006003a00d063a80007
:10431c0000000600e10f500003003a002e63a800d5
:10432c000000060000000600000006009a63a800ca
:10433c00000006006463a80000000600e20f5000b5
:10434c0011003200e20f500008003600e30f50005d
:10435c0011003200e40f50000a003a00801e800069
:10436c004400de006140600000000600e10f5000d8
:10437c0004003a00701980004400de0061406000c7
:10438c000000060000000500201b80004400de0039
:10439c006140600000000600d01c80004400de007c
:1043ac006140600000000600e20f50001000320077
:1043bc00e20f500006003600e30f50000a003200f6
:1043cc00e40f500006003a00c11f880000000600f0
:1043dc00e10f500003003a00b11a880000000600fb
:1043ec000000060000000600111e880000000600f8
:1043fc00611c880000000600e20f50001000320023
:10440c00e20f500006003600e30f50000a003200a5
:10441c00e40f500006003a00d11f8800000006008f
:10442c00e10f500003003a00c11a8800000006009a
:10443c000000060000000600211e88000000060097
:10444c00711c880000000600e20f500010003200c2
:10445c00e20f500006003600e30f50000a00320055
:10446c00e40f500006003a00dae3a8000000060052
:10447c00e10f500003003a0038e3a80000000600ea
:10448c000000060000000600a4e3a80000000600df
:10449c006ee3a80000000600800820005019880078
:1044ac00001b8800b01c8800601e88005e23ef0093
:1044bc003e23ef003c23ef0000a020006019880091
:1044cc004e23ef005023ef0080252000e01a8800d7
:1044dc00d01a880001022000b11988003110200088
:1044ec00a11988004223ef004023ef003a23ef008c
:1044fc00f4012000c4198800c3002000931988001f
:10450c00022c2000821988004a23ef004823ef0078
:10451c00713e2400911a88004c23ef004623ef00d3
:10452c004423ef002e23ef005423ef005623ef001b
:10453c005823ef009423ef007423ef007223ef0055
:10454c0015202000151b88008423ef008623ef0024
:10455c00901c8800801c88006c23ef003500200024
:10456c00551b88007823ef007623ef007023ef00b3
:10457c00741b8800431b8800321b88008023ef00cb
:10458c007e23ef00411c88008223ef007c23ef0088
:10459c007a23ef006423ef008a23ef008c23ef00d3
:1045ac008e23ef00ca23ef00aa23ef00a823ef000d
:1045bc0026202000c61c8800ba23ef00bc23ef0085
:1045cc00401e8800301e8800a223ef00051d8800c5
:1045dc00ae23ef00ac23ef00a623ef00241d8800d0
:1045ec00f31c8800e21c8800b623ef00b423ef0014
:1045fc00f11d8800b823ef00b223ef00b023ef00c9
:10460c009a23ef00c023ef00c223ef00c423ef0076
:10461c000024ef00e023ef00de23ef0036802000c3
:10462c00761e8800f023ef00f223ef00f01f8800c5
:10463c00e01f8800d823ef00b51e8800e423ef00ac
:10464c00e223ef00dc23ef00d41e8800a31e8800b9
:10465c00921e8800ec23ef00ea23ef00a11f8800d4
:10466c00ee23ef00e823ef00e623ef00d023ef006a
:10467c00f623ef00f823ef00fa23ef001023ef00ee
:10468c000e23ef000223ef000423ef000c23ef00b6
:10469c001223ef001423ef001623ef001823ef0072
:1046ac001a23ef001c23ef000823ef005118880099
:1046bc000623ef0010002000001888001e23ef00d6
:1046cc002023ef002223ef002423ef002623ef000a
:1046dc002823ef00a048220020b888000000060024
:1046ec002be3a90061e3a90097e3a900cde3a9009e
:1046fc002a23ef006023ef009623ef00cc23ef007a
:10470c005e23ef003e23ef003c23ef002c23ef0051
:10471c004e23ef005023ef005c23ef005a23ef00f1
:10472c003623ef003423ef004223ef004023ef0049
:10473c003a23ef003823ef003223ef003023ef0051
:10474c004a23ef004823ef005223ef004c23ef00e5
:10475c004623ef004423ef002e23ef005423ef00f9
:10476c005623ef005823ef009423ef007423ef003f
:10477c007223ef006223ef008423ef008623ef0007
:10478c009223ef009023ef006c23ef006a23ef00dd
:10479c007823ef007623ef007023ef006e23ef00f9
:1047ac006823ef006623ef008023ef007e23ef00e9
:1047bc008823ef008223ef007c23ef007a23ef00a5
:1047cc006423ef008a23ef008c23ef008e23ef008d
:1047dc00ca23ef00aa23ef00a823ef009823ef00d1
:1047ec00ba23ef00bc23ef00c823ef00c623ef0071
:1047fc00a223ef00a023ef00ae23ef00ac23ef00c9
:10480c00a623ef00a423ef009e23ef009c23ef00d0
:10481c00b623ef00b423ef00be23ef00b823ef0064
:10482c00b223ef00b023ef009a23ef00c023ef0078
:10483c00c223ef00c423ef000024ef00e023ef00bd
:10484c00de23ef00ce23ef00f023ef00f223ef0086
:10485c00fe23ef00fc23ef00d823ef00d623ef005c
:10486c00e423ef00e223ef00dc23ef00da23ef0078
:10487c00d423ef00d223ef00ec23ef00ea23ef0068
:10488c00f423ef00ee23ef00e823ef00e623ef0024
:10489c00d023ef00f623ef00f823ef00fa23ef000c
:1048ac001023ef000e23ef000223ef000423ef0090
:1048bc000c23ef001223ef001423ef001623ef005c
:1048cc001823ef001a23ef001c23ef000823ef003e
:1048dc000a23ef000623ef000023ef001e23ef0056
:1048ec002023ef002223ef002423ef002623ef00e8
:1048fc002823ef00000006000000e0000100320059
:10490c0020b888000000060000000600e20f5000ee
:10491c001d003200e20f500007003600e30f50007c
:10492c0011003200e40f50000e003a0008c8ab0032
:10493c001d003a0000000600e10f500008003a008c
:10494c000868ab00fbff320021b880000100e000da
:10495c0001003200010001000868a90000000600f7
:10496c00000006000000060008a8ab00f1ff3200b2
:10497c0021b880000100e0000100320001000100bc
:10498c0008a8a900000006000888ab00e9ff320067
:10499c0021b880000100e00001003200010001009c
:1049ac000888a9000000060021b880000100e00082
:1049bc00010032000100010008c8a9000000060037
:1049cc00e20f500025003200e20f50000d003600bf
:1049dc00e30f500018003200e40f500015003a00ad
:1049ec0020210a00cc030000e28f50002c00320082
:1049fc00a01e800054400a0000000000a01e880089
:104a0c0000000600e10f500009003a0020210a00c6
:104a1c002a030000e28f500025003200901980001c
:104a2c0054400a00000000009019880000000600a5
:104a3c00000006000000060020210a00960300007a
:104a4c00e28f500012003200f01c800054400a002b
:104a5c0000000000f01c88000000060020210a0065
:104a6c0060030000e28f500005003200401b800004
:104a7c0054400a0000000000401b880000000600a3
:104a8c001000200054200a006803000000000600fb
:104a9c001000200054200a009e03000000000600b5
:104aac001000200054200a00d4030000000006006f
:104abc0054200a003203000000000600e20f5000f0
:104acc001f003200e20f50000b003600e30f5000c5
:104adc0014003200e40f500010003a00aaa00a00a3
:104aec00d20300008140d00080c07000ba210a00bf
:104afc00d203000000000600e10f500008003a004d
:104b0c00aaa00a00300300008140d00080c07000d1
:104b1c00ba210a0030030000000006000000060065
:104b2c0000000600aaa00a009c0300008140d000ef
:104b3c0080c07000ba210a009c030000000006002f
:104b4c00aaa00a00660300008140d00080c070005b
:104b5c00ba210a006603000000000600e20f5000b4
:104b6c001f003200e20f50000b003600e30f500024
:104b7c0014003200e40f500010003a00baa00a00f2
:104b8c00d20300006240600081407000ba210a002c
:104b9c00d203000000000600e10f500008003a00ac
:104bac00baa00a003003000062406000814070002f
:104bbc00ba210a00300300000000060000000600c5
:104bcc0000000600baa00a009c03000062406000ce
:104bdc0081407000ba210a009c030000000006000e
:104bec00baa00a00660300006240600081407000b9
:104bfc00ba210a006603000000000600e20f500014
:104c0c0030003200e20f50000e003600e30f50006f
:104c1c001a003200e40f500017003a00e28f5000e7
:104c2c0044003200e28f500030003600e38f500019
:104c3c004a003200e48f500036003a00d983a800b5
:104c4c0000000600e10f50000a003a00e28f50000d
:104c5c0036003200e28f500012003600e38f500015
:104c6c0036003200e48f500028003a003783a80049
:104c7c00000006000000060000000600e28f500055
:104c8c0034003200e28f50000a003600e38f5000ef
:104c9c002e003200e48f500020003a00a383a800bd
:104cac0000000600e18f50001d003a0037e3a80019
:104cbc0000000600e18f500017003a00a3e3a800a3
:104ccc0000000600e28f500026003200e28f5000f8
:104cdc000a003600e38f50001a003200e48f5000b7
:104cec0010003a006d83a80000000600e18f500010
:104cfc000d003a00d9e3a80000000600e18f500037
:104d0c0003003a006de3a800000006000000060056
:104d1c00000006000000060000000600000006006f
:104d2c0000000600000006000000060037c3a800c3
:104d3c0000000600d9c3a8000000060037a3a80095
:104d4c00000006006da3a80000000600a3a3a800a5
:104d5c0000000600a3c3a80000000600d9a3a80009
:104d6c00000006006dc3a80000000600e20f500012
:104d7c0030003200e20f50000e003600e30f5000fe
:104d8c001a003200e40f500017003a00e28f500076
:104d9c0044003200e28f500030003600e38f5000a8
:104dac004a003200e48f500036003a00d983a90043
:104dbc0000000600e10f50000a003a00e28f50009c
:104dcc0036003200e28f500012003600e38f5000a4
:104ddc0036003200e48f500028003a003783a900d7
:104dec00000006000000060000000600e28f5000e4
:104dfc0034003200e28f50000a003600e38f50007e
:104e0c002e003200e48f500020003a00a383a9004a
:104e1c0000000600e18f50001d003a0037e3a900a6
:104e2c0000000600e18f500017003a00a3e3a90030
:104e3c0000000600e28f500026003200e28f500086
:104e4c000a003600e38f50001a003200e48f500045
:104e5c0010003a006d83a90000000600e18f50009d
:104e6c000d003a00d9e3a90000000600e18f5000c4
:104e7c0003003a006de3a9000000060000000600e4
:104e8c0000000600000006000000060000000600fe
:104e9c0000000600000006000000060037c3a90051
:104eac0000000600d9c3a9000000060037a3a90022
:104ebc00000006006da3a90000000600a3a3a90032
:104ecc0000000600a3c3a90000000600d9a3a90096
:104edc00000006006dc3a90000000600e20f5000a0
:104eec0030003200e20f50000e003600e30f50008d
:104efc001a003200e40f500017003a00e28f500005
:104f0c0044003200e28f500030003600e38f500036
:104f1c004a003200e48f500036003a00d1e3a90079
:104f2c0000000600e10f50000a003a00e28f50002a
:104f3c0036003200e28f500012003600e38f500032
:104f4c0036003200e48f500028003a002fe3a9000d
:104f5c00000006000000060000000600e28f500072
:104f6c0034003200e28f50000a003600e38f50000c
:104f7c002e003200e48f500020003a009be3a90081
:104f8c0000000600e18f50001d003a002fc3a9005d
:104f9c0000000600e18f500017003a009bc3a900e7
:104fac0000000600e28f500026003200e28f500015
:104fbc000a003600e38f50001a003200e48f5000d4
:104fcc0010003a0065e3a90000000600e18f5000d4
:104fdc000d003a00d1c3a90000000600e18f50007b
:104fec0003003a0065c3a90000000600000006009b
:104ffc00000006000000060000000600000006008d
:10500c000000060000000600000006002fa3a90007
:10501c0000000600d1a3a900000006002f83a90000
:10502c00000006006583a900000006009b83a90010
:10503c00000006009ba3a90000000600d183a90074
:10504c000000060065a3a90000000600e20f500056
:10505c0026003200e20f500010003600e30f500023
:10506c002e003200e40f50001a003a00e28f50007c
:10507c0045003200e28f500017003600e38f5000dd
:10508c0047003200e48f500012003a00801e80006e
:10509c00ff800a000000000000000600e10f500035
:1050ac000c003a00e28f50003a003200e28f5000c0
:1050bc0026003600e38f50003f003200e48f500092
:1050cc0004003a0070198000ff800a000000000004
:1050dc000000060000000500e18f5000fdff3a00c3
:1050ec00eea00a00d003000000000600e28f500082
:1050fc0034003200e28f500019003600e38f50006c
:10510c0033003200e48f5000f2ff3a00201b800085
:10511c00ff800a000000000000000600e28f500033
:10512c002e003200e28f500012003600e38f500048
:10513c001e003200e48f5000e6ff3a00d01c8000c5
:10514c00ff800a000000000000000600e18f500004
:10515c00e0ff3a00eea00a002e030000000006005b
:10516c00e18f5000dbff3a00eea00a006403000060
:10517c0000000600e18f5000d6ff3a00eea00a00b6
:10518c009a03000000000600dda00a00d003000016
:10519c0000000600dda00a002e030000000006003f
:1051ac00cca00a00d003000000000600cca00a002e
:1051bc009a03000000000600cca00a002e03000099
:1051cc0000000600dda00a006403000000000600d9
:1051dc00cca00a006403000000000600dda00a0059
:1051ec009a03000000000600e20f50001900320084
:1051fc00e20f50000b003600e30f50001d00320090
:10520c00e40f500012003a00e28f500031003200df
:10521c00e38f500025003200e18f50002100320056
:10522c0000000600e10f500008003a00e28f500029
:10523c0026003200e38f50001e003200e18f500038
:10524c00f7ff3a003503a800000006000000060036
:10525c0000000600e28f50001a003200e38f50006d
:10526c000e003200e18f5000edff3a006b03a800f6
:10527c0000000600e28f500010003200e38f500057
:10528c0004003200e18f5000e5ff3a00a103a800b2
:10529c0000000600a143a800000006006b43a80014
:1052ac0000000600d703a80000000600d743a800a2
:1052bc00000006003543a80000000600a123a8004a
:1052cc00000006006b23a800000006003523a80090
:1052dc0000000600d723a80000000600e20f5000d3
:1052ec0019003200e20f50000b003600e30f5000a3
:1052fc001d003200e40f500012003a00e28f500003
:10530c0031003200e38f500025003200e18f500055
:10531c002100320000000600e10f500008003a00a6
:10532c00e28f500026003200e38f50001e00320046
:10533c00e18f5000f7ff3a003503a900000006008a
:10534c000000060000000600e28f50001a00320038
:10535c00e38f50000e003200e18f5000edff3a0059
:10536c006b03a90000000600e28f50001000320011
:10537c00e38f500004003200e18f5000e5ff3a004b
:10538c00a103a90000000600a143a900000006002b
:10539c006b43a90000000600d703a900000006001b
:1053ac00d743a900000006003543a9000000060001
:1053bc00a123a900000006006b23a9000000060031
:1053cc003523a90000000600d723a9000000060021
:1053dc00e20f500019003200e20f50000b003600b3
:1053ec00e30f50001d003200e40f500012003a0091
:1053fc00e28f500031003200e38f50002500320064
:10540c00e18f50002100320000000600e10f500037
:10541c0008003a00e28f500026003200e38f500063
:10542c001e003200e18f5000f7ff3a0036a3a800af
:10543c00000006000000060000000600e28f50008d
