:020000040000fa
:080000000002040000000000f2
:020000040000fa
:040008007409000077
:020000040000fa
:04000c00e408000004
:020000040000fa
:0400100000090000e3
:020000040000fa
:04001400ac09000033
:020000040000fa
:04001800900900004b
:020000040000fa
:04001c002c0a0000aa
:020000040000fa
:040020001c090000b7
:020000040000fa
:040024002c0a0000a2
:020000040000fa
:040028002c0a00009e
:020000040000fa
:04002c00f0090000d7
:020000040000fa
:040030002c0a000096
:020000040000fa
:040034002c0a000092
:020000040000fa
:040038002c0a00008e
:020000040000fa
:04003c002c0a00008a
:020000040000fa
:040040002c0a000086
:020000040000fa
:040044000c0a0000a2
:020000040000fa
:040048002c0a00007e
:020000040000fa
:04004c002c0a00007a
:020000040000fa
:040050002c0a000076
:020000040000fa
:040054002c0a000072
:020000040000fa
:040058002c0a00006e
:020000040000fa
:04005c002c0a00006a
:020000040000fa
:040060002c0a000066
:020000040000fa
:040064002c0a000062
:020000040000fa
:040068002c0a00005e
:020000040000fa
:04006c002c0a00005a
:020000040000fa
:040070002c0a000056
:020000040000fa
:040074002c0a000052
:020000040000fa
:040078002c0a00004e
:020000040000fa
:04007c002c0a00004a
:020000040000fa
:040080002c0a000046
:020000040000fa
:040084002c0a000042
:020000040000fa
:040088002c0a00003e
:020000040000fa
:04008c00b0080000b8
:020000040000fa
:040090002c0a000036
:020000040000fa
:040094002c0a000032
:020000040000fa
:040098002c0a00002e
:020000040000fa
:04009c002c0a00002a
:020000040000fa
:0400a0002c0a000026
:020000040000fa
:0400a4002c0a000022
:020000040000fa
:0400a8002c0a00001e
:020000040000fa
:0400ac002c0a00001a
:020000040000fa
:0400b0002c0a000016
:020000040000fa
:0400b4002c0a000012
:020000040000fa
:0400b8002c0a00000e
:020000040000fa
:0400bc002c0a00000a
:020000040000fa
:0400c0002c0a000006
:020000040000fa
:0400c4002c0a000002
:020000040000fa
:0400c8002c0a0000fe
:020000040000fa
:0400cc002c0a0000fa
:020000040000fa
:0400d0002c0a0000f6
:020000040000fa
:0400d4002c0a0000f2
:020000040000fa
:0400d8002c0a0000ee
:020000040000fa
:0400dc00d009000047
:020000040000fa
:0400e0002c0a0000e6
:020000040000fa
:0400e4002c0a0000e2
:020000040000fa
:0400e8002c0a0000de
:020000040000fa
:0400ec002c0a0000da
:020000040000fa
:0400f0002c0a0000d6
:020000040000fa
:0400f4002c0a0000d2
:020000040000fa
:0400f8002c0a0000ce
:020000040000fa
:0400fc002c0a0000ca
:020000040000fa
:040100002c0a0000c5
:020000040000fa
:040104002c0a0000c1
:020000040000fa
:040108002c0a0000bd
:020000040000fa
:04010c002c0a0000b9
:020000040000fa
:040110002c0a0000b5
:020000040000fa
:040114002c0a0000b1
:020000040000fa
:040118002c0a0000ad
:020000040000fa
:04011c002c0a0000a9
:020000040000fa
:040120002c0a0000a5
:020000040000fa
:040124002c0a0000a1
:020000040000fa
:040128002c0a00009d
:020000040000fa
:04012c002c0a000099
:020000040000fa
:040130002c0a000095
:020000040000fa
:040134002c0a000091
:020000040000fa
:040138002c0a00008d
:020000040000fa
:04013c002c0a000089
:020000040000fa
:040140002c0a000085
:020000040000fa
:040144002c0a000081
:020000040000fa
:040148002c0a00007d
:020000040000fa
:04014c002c0a000079
:020000040000fa
:040150002c0a000075
:020000040000fa
:040154002c0a000071
:020000040000fa
:040158002c0a00006d
:020000040000fa
:04015c002c0a000069
:020000040000fa
:040160002c0a000065
:020000040000fa
:040164002c0a000061
:020000040000fa
:040168002c0a00005d
:020000040000fa
:04016c002c0a000059
:020000040000fa
:040170002c0a000055
:020000040000fa
:040174002c0a000051
:020000040000fa
:040178002c0a00004d
:020000040000fa
:04017c002c0a000049
:020000040000fa
:040180002c0a000045
:020000040000fa
:040184002c0a000041
:020000040000fa
:040188002c0a00003d
:020000040000fa
:04018c002c0a000039
:020000040000fa
:040190006206000003
:020000040000fa
:040194004808000017
:020000040000fa
:040198007c080000df
:020000040000fa
:04019c004407000014
:020000040000fa
:0401a0002c0a000025
:020000040000fa
:0401a4002c0a000021
:020000040000fa
:0401a8002c0a00001d
:020000040000fa
:0401ac002c0a000019
:020000040000fa
:0401b00078070000cc
:020000040000fa
:0401b4002c0a000011
:020000040000fa
:0401b8002c0a00000d
:020000040000fa
:0401bc00ac0700008c
:020000040000fa
:0401c0002c0a000005
:020000040000fa
:0401c4002c0a000001
:020000040000fa
:0401c8002c0a0000fd
:020000040000fa
:0401cc00e007000048
:020000040000fa
:0401d0002c0a0000f5
:020000040000fa
:0401d4002c0a0000f1
:020000040000fa
:0401d8002c0a0000ed
:020000040000fa
:0401dc002c0a0000e9
:020000040000fa
:0401e00014080000ff
:020000040000fa
:0401e4002c0a0000e1
:020000040000fa
:0401e8002c0a0000dd
:020000040000fa
:0401ec002c0a0000d9
:020000040000fa
:0401f0002c0a0000d5
:020000040000fa
:0401f4002c0a0000d1
:020000040000fa
:0401f8002c0a0000cd
:020000040000fa
:0401fc002c0a0000c9
:020000040000fa
:040200002c0a0000c4
:020000040000fa
:040204002c0a0000c0
:020000040000fa
:040208002c0a0000bc
:020000040000fa
:04020c002c0a0000b8
:020000040000fa
:040210002c0a0000b4
:020000040000fa
:040214002c0a0000b0
:020000040000fa
:040218002c0a0000ac
:020000040000fa
:04021c002c0a0000a8
:020000040000fa
:040220002c0a0000a4
:020000040000fa
:040224002c0a0000a0
:020000040000fa
:040228002c0a00009c
:020000040000fa
:04022c002c0a000098
:020000040000fa
:040230002c0a000094
:020000040000fa
:040234002c0a000090
:020000040000fa
:040238002c0a00008c
:020000040000fa
:04023c002c0a000088
:020000040000fa
:040240002c0a000084
:020000040000fa
:040244002c0a000080
:020000040000fa
:040248002c0a00007c
:020000040000fa
:04024c002c0a000078
:020000040000fa
:040250002c0a000074
:020000040000fa
:040254002c0a000070
:020000040000fa
:040258002c0a00006c
:020000040000fa
:04025c002c0a000068
:020000040000fa
:040260002c0a000064
:020000040000fa
:040264002c0a000060
:020000040000fa
:040268002c0a00005c
:020000040000fa
:04026c002c0a000058
:020000040000fa
:040270002c0a000054
:020000040000fa
:040274002c0a000050
:020000040000fa
:040278002c0a00004c
:020000040000fa
:04027c002c0a000048
:020000040000fa
:040280002c0a000044
:020000040000fa
:040284002c0a000040
:020000040000fa
:040288002c0a00003c
:020000040000fa
:04028c002c0a000038
:020000040000fa
:040290002c0a000034
:020000040000fa
:040294002c0a000030
:020000040000fa
:040298002c0a00002c
:020000040000fa
:04029c002c0a000028
:020000040000fa
:0402a0002c0a000024
:020000040000fa
:0402a4002c0a000020
:020000040000fa
:0402a8002c0a00001c
:020000040000fa
:0402ac002c0a000018
:020000040000fa
:0402b0002c0a000014
:020000040000fa
:0402b4002c0a000010
:020000040000fa
:0402b8002c0a00000c
:020000040000fa
:0402bc002c0a000008
:020000040000fa
:0402c0002c0a000004
:020000040000fa
:0402c4002c0a000000
:020000040000fa
:0402c8002c0a0000fc
:020000040000fa
:0402cc002c0a0000f8
:020000040000fa
:0402d0002c0a0000f4
:020000040000fa
:0402d4002c0a0000f0
:020000040000fa
:0402d8002c0a0000ec
:020000040000fa
:0402dc002c0a0000e8
:020000040000fa
:0402e0002c0a0000e4
:020000040000fa
:0402e4002c0a0000e0
:020000040000fa
:0402e8002c0a0000dc
:020000040000fa
:0402ec002c0a0000d8
:020000040000fa
:0402f0002c0a0000d4
:020000040000fa
:0402f4002c0a0000d0
:020000040000fa
:0402f8002c0a0000cc
:020000040000fa
:0402fc002c0a0000c8
:020000040000fa
:040300002c0a0000c3
:020000040000fa
:040304002c0a0000bf
:020000040000fa
:040308002c0a0000bb
:020000040000fa
:04030c002c0a0000b7
:020000040000fa
:040310002c0a0000b3
:020000040000fa
:040314002c0a0000af
:020000040000fa
:040318002c0a0000ab
:020000040000fa
:04031c002c0a0000a7
:020000040000fa
:040320002c0a0000a3
:020000040000fa
:040324002c0a00009f
:020000040000fa
:040328002c0a00009b
:020000040000fa
:04032c002c0a000097
:020000040000fa
:040330002c0a000093
:020000040000fa
:040334002c0a00008f
:020000040000fa
:100400000f7921004efb26000e018800000000003d
:10041000000020000000e000020032000001200087
:1004200020028800140007000d0407000000e0000f
:1004300003003a00602f2500010020000200370071
:100440000000200001002000810f70000100320038
:100450000f000700000020000000e0000200320052
:100460000000020000000000a26402000000000082
:100470000040da000000fe00202820000000e0001c
:1004800002003200002020009001880000000600d9
:10049000a1028800800478000000eb001f003700f4
:1004a000e284440054a0b4009905ba00e2844400f8
:1004b00054a0b4009906ba00e284440054a0b400e9
:1004c0000006eb00476fde00fd07b200ae018800ba
:1004d000636ce10003003a000ad801000000eb0061
:1004e0000e003700606ce10008003a00004deb00a0
:1004f0000a05e800020039003420ec000af0a000f0
:100500008b05e900f9ff3e00040037006168e10057
:10051000010032000086eb000b00070019c7ba008b
:100520001905ba000e04e00003003a000a00e000da
:10053000dbff3a0000000600fe07b200ae028800b2
:100540008a047800f5ff37000cd0a300e20f4d00bd
:100550001c003b0089027800354dba000a05e8000e
:10056000020039003420ec000af0a0008b05e900fd
:100570000f003200254dba000a05e80002003900dc
:100580003420ec000af0a0008b05e90008003200de
:100590000c00e0000600320015cdba000a05e800a4
:1005a000020039003420ec000af0a0008b05e900bd
:1005b0008984e80054a0b4000b00e000e2ff3a0098
:1005c000000006009902ba00055d78008b05e9007d
:1005d000f7ff3200c82ade00055d78008b05e900d0
:1005e000f3ff32000c00e000f1ff320019ddba0029
:1005f000eeff37002c3804000000000036380400fd
:1006000000000000ce380400000000007436040032
:100610000000000090340400000000009434040046
:100620000000000098340400000000009c34040026
:1006300000000000a034040000000000a234040008
:1006400000000000dc340400000000002a35040033
:100650000000000050350400000000005435040084
:100660000000000058350400000000005c35040064
:10067000000000002438040000000000ba39040023
:10068000000000002e38040000000000ca380400fa
:10069000000000003838040000000000623504004b
:1006a00000000000aa35040000000000f23504003c
:1006b000000000002c36040000000000cc390400cb
:1006c000000000002e37040000000000383704004e
:1006d00000000000202e0400000000007834040018
:1006e000000000007a340400000000007c340400a4
:1006f000000000007e34040000000000803404008c
:10070000000000007634040000000000e63204001f
:100710000000000094300400000000007630040067
:1007200000000000302d040000000000fc30040038
:1007300000000000f22d0400000000000c31040055
:10074000000000008234040000000000082e0400b5
:1007500000000000102e040000000000d63204004b
:10076000000000008e330400000000007c2f040015
:1007700000000000fa2d040000000000022e04001a
:1007800000000000c632040000000000382d040004
:1007900000000000dc2d040000000000182e040002
:1007a00000000000222e0400000000002a2e040099
:1007b00000000000322e0400000000003a2e040069
:1007c00000000000422e0400000000004a2e040039
:1007d00000000000522e040000000000005d040034
:1007e00000000000405d040000000000cc5c04003c
:1007f00000000000ea5c040000000000c45c04008b
:1008000000000000c85c0400000000000a5d040055
:1008100000000000f85c040000000000025d04001d
:1008200000000000125d040000000000ac5d040048
:1008300000000000425d0400000000006a5d04004a
:10084000000000008e5d040000000000925d0400c6
:1008500000000000865d040000000000a45d0400ac
:1008600000000000ae5d040000000000965d040082
:10087000000000009a5d0400000000009e5d04007e
:10088000000000002a5e040000000000c05d0400bb
:1008900000000000e85d0400000000000c5e0400a1
:1008a00000000000105e040000000000045e040070
:1008b00000000000225e0400000000002c5e040026
:1008c00000000000145e040000000000185e040038
:1008d000000000001c5e040000000000a65e040092
:1008e000000000003e5e040000000000645e0400a2
:1008f00000000000885e0400000000008c5e040020
:1009000000000000805e0400000000009e5e040005
:1009100000000000a85e040000000000905e0400db
:1009200000000000945e040000000000985e0400d7
:100930000000000010430400000000001642040004
:10094000000000004a420400000000005a42040077
:1009500000000000a642040000000000ca4204009b
:10096000000000001243040000000000764504006f
:1009700000000000c244040000000000ec44040039
:10098000000000004045040000000000084304008f
:10099000000000002043040000000000225f04006b
:1009a00000000000ba5e040000000000e45e0400e5
:1009b00000000000065f0400000000000a5f040061
:1009c000000000000e5f040000000000125f040041
:1009d00000000000165f0400000000001a5f040021
:1009e00000000000245f040000000000b0260400a6
:1009f0000000000078240400000000009c25040092
:100a0000000000003e21040000000000342104002a
:100a10000000000048210400000000004c210400f8
:100a200000000000502104000000000054210400d8
:100a3000000000000c270400000000007c210400de
:100a400000000000a421040000000000d4210400e4
:100a500000000000fc210400000000008a270400c0
:100a600000000000da270400000000002c2204002f
:100a7000000000005a22040000000000822204004e
:100a800000000000aa22040000000000d22204009e
:100a900000000000fa2204000000000022230400ed
:100aa000000000004a230400000000007a23040034
:100ab000000000002a28040000000000e2280400d2
:100ac00000000000522a0400000000009a290400df
:100ad000000000000c21040000000000e4200400dd
:100ae00000000000082d04000000000000240400a5
:100af000000000002824040000000000a2230400dd
:100b000000000000ca23040000000000502404007c
:100b100000000000202b0400000000009a2b0400bd
:100b200000000000142c0400000000008e2c0400c3
:100b300000000000a826040000000000b226040007
:100b4000000000003e5c040000000000fc620400a5
:100b500000000000bc62040000000000d06204003d
:100b600000000000dc62040000000000e4620400f9
:100b700000000000ea62040000000000b06204000f
:100b800000000000b662040000000000ee620400f5
:100b900000000000f462040000000000a85a0400f5
:100ba000000000003a5a040000000000645a0400eb
:100bb000000000008a5a040000000000925a04005d
:100bc00000000000e25a040000000000aa5a0400dd
:100bd00000000000c65a0400000000009a5a0400f9
:100be00000000000a05a0400000000003e51040074
:100bf000000000005a510400000000006c51040085
:100c00000000000086510400000000009051040024
:100c1000000000009851040000000000a6510400ec
:100c200000000000b451040000000000b8510400ae
:100c300000000000bc51040000000000d45104007a
:100c400000000000dc510400000000003a520400e3
:100c50000000000042520400000000005452040052
:100c600000000000b252040000000000e451040043
:100c700000000000ce45040000000000e84504002c
:100c8000000000001046040000000000fe450400c3
:100c90000000000022460400000000005448040048
:100ca000000000006448040000000000564d0400ed
:100cb000000000001a6104000000000084640400c9
:100cc000000000003600f800809fbe00829fbe003a
:100cd000849fbe00869fbe003200f8003400f800fa
:100ce00010002000a00188000020200000d0fe009d
:100cf000b0b980000000e0000100320000000100f7
:100d00000ba8ab0056003a000c48ab0041003a007b
:100d10000ca8ab0048003a000d28ab0033003a00a5
:100d20000dc8ab0027003a000b68ab001b003a006f
:100d30000b88ab0009003a000b48a9003400f90009
:100d40003200f9004f03be004f02be004f01be004b
:100d50004f00be003600f9000040060071608000c0
:100d6000a2b980000200e000020032006000200012
:100d7000020001000b88a9000b48a9003400f9000b
:100d80003200f9004f03be004f02be004f01be000b
:100d90004f00be003600f900004006006160800090
:100da000a2b980000200e0000200320050002000e2
:100db000020001000b68a9000b88ab00deff3200c7
:100dc000e6ff370091618000a2b980000200e000d8
:100dd0000200320040002000020001000dc8a900fe
:100de0000b68ab00d2ff3200ecff3700416180009e
:100df000a2b980000200e0000200320030002000b2
:100e0000020001000d28a9000dc8ab00c6ff32008a
:100e1000ecff3700d1608000a2b980000200e00042
:100e20000200320010002000020001000c48a9005e
:100e30000ca8ab00b8ff320001618000a2b98000ad
:100e40000200e00002003200200020000200010049
:100e50000ca8a9000d28ab00b1ff3200e3ff37005a
:100e600081608000a2b980000200e0000200320030
:100e70000000eb00020001000ba8a9000c48ab0029
:100e8000a3ff3200e3ff37003600f800809fbe006a
:100e9000829fbe00849fbe00869fbe003200f80085
:100ea0003400f80010002000a0018800002020007d
:100eb00000d0fe0081608000a2b980000200e00046
:100ec000020032000000eb00020001000ba8a900a4
:100ed0003400f9003200f9004f03be004f02be009b
:100ee0004f01be004f00be003600f9000040060072
:100ef0003600f800809fbe00829fbe00849fbe0027
:100f0000869fbe003200f8003400f8001000200078
:100f1000a00188000020200000d0fe00d1608000e9
:100f2000a2b980000200e0000200320010002000a0
:100f3000020001000c48a9003400f9003200f90059
:100f40004f03be004f02be004f01be004f00be0067
:100f50003600f900004006003600f800809fbe0011
:100f6000829fbe00849fbe00869fbe003200f800b4
:100f70003400f80010002000a001880000202000ac
:100f800000d0fe0001618000a2b980000200e000f4
:100f90000200320020002000020001000ca8a9007d
:100fa0003400f9003200f9004f03be004f02be00ca
:100fb0004f01be004f00be003600f90000400600a1
:100fc0003600f800809fbe00829fbe00849fbe0056
:100fd000869fbe003200f8003400f80010002000a8
:100fe000a00188000020200000d0fe0041618000a8
:100ff000a2b980000200e0000200320030002000b0
:10100000020001000d28a9003400f9003200f900a7
:101010004f03be004f02be004f01be004f00be0096
:101020003600f900004006003600f800809fbe0040
:10103000829fbe00849fbe00869fbe003200f800e3
:101040003400f80010002000a001880000202000db
:1010500000d0fe0091618000a2b980000200e00093
:101060000200320040002000020001000dc8a9006b
:101070003400f9003200f9004f03be004f02be00f9
:101080004f01be004f00be003600f90000400600d0
:101090003600f800809fbe00829fbe00849fbe0085
:1010a000869fbe003200f8003400f80010002000d7
:1010b000a00188000020200000d0fe0061608000b8
:1010c000a2b980000200e0000200320050002000bf
:1010d000020001000b68a9003400f9003200f90099
:1010e0004f03be004f02be004f01be004f00be00c6
:1010f0003600f900004006003600f800809fbe0070
:10110000829fbe00849fbe00869fbe003200f80012
:101110003400f80010002000a0018800002020000a
:1011200000d0fe0071608000a2b980000200e000e3
:101130000200320060002000020001000b88a900bc
:101140003400f9003200f9004f03be004f02be0028
:101150004f01be004f00be003600f90000400600ff
:101160003600f800809fbe00829fbe00849fbe00b4
:10117000869fbe00ddc5ab0007003a000328a9002a
:101180004f03be004f02be004f01be004f00be0025
:101190003600f90000400600b0b280000000e00018
:1011a0000100320000000100ddc5a9000328a900ec
:1011b0004f03be004f02be004f01be004f00be00f5
:1011c0003600f900004006003600f800809fbe009f
:1011d000829fbe00849fbe00869fbe00c068a9009b
:1011e00020002000fc2d07004f03be004f02be0070
:1011f0004f01be004f00be003600f900004006005f
:101200003600f800809fbe00829fbe00849fbe0013
:10121000869fbe00c608a90070002000ee2d0700c2
:101220004f03be004f02be004f01be004f00be0084
:101230003600f900004006003600f800809fbe002e
:10124000829fbe00849fbe00869fbe00c488ab0004
:1012500009003a00c4a8ab001d003a00c508ab0065
:1012600015003a00c528ab000d003a00c408ab00d9
:1012700007003a00ffff3700c488a900a000200043
:10128000d52d0700c4a8ab00f4ff320010003700d2
:10129000c408a900b0002000cf2d0700f5ff3700db
:1012a000c528a900d0002000cb2d0700c408ab0042
:1012b000f0ff3200f6ff3700c508a900c00020008b
:1012c000c52d0700c528ab00e8ff3200f4ff37004a
:1012d000c4a8a90090002000bf2d0700c508ab00de
:1012e000e0ff3200f4ff37003600f800809fbe00b8
:1012f000829fbe00849fbe00869fbe00c028a900ba
:101300000000eb00b42d07004f03be004f02be00eb
:101310004f01be004f00be003600f900004006003d
:101320003600f800809fbe00829fbe00849fbe00f2
:10133000869fbe00c088a90030002000a62d0700af
:101340004f03be004f02be004f01be004f00be0063
:101350003600f900004006003600f800809fbe000d
:10136000829fbe00849fbe00869fbe00a0652100b4
:10137000800778002067210000018800c048a9008c
:1013800010002000942d07004f03be004f02be0046
:101390004f01be004f00be003600f90000400600bd
:1013a0003600f800809fbe00829fbe00849fbe0072
:1013b000869fbe0010b880000000e00001003200ef
:1013c0000000010005a8a9004f03be004f02be00a7
:1013d0004f01be004f00be003600f900004006007d
:1013e0003600f800809fbe00829fbe00849fbe0032
:1013f000869fbe0000bb8000000001000028a900fd
:101400004f03be004f02be004f01be004f00be00a2
:101410003600f900004006003600f800809fbe004c
:10142000829fbe00849fbe00869fbe0010bb8000ce
:101430000000e000010032000000010000e8a90007
:101440004f03be004f02be004f01be004f00be0062
:101450003600f900004006000040da000000fe00ff
:1014600000000500f4ff2f00320237000001be002b
:101470001b0007000470a70003f0a10003f8a300fd
:1014800013003a006509b100100032000900350070
:101490006928e10002003500010028000000050075
:1014a00000004000818048008502e900fcff3a000e
:1014b00000000600f88f4200050035008100d100d1
:1014c0000080d3008502e800fcff3a00000006001f
:1014d0008000eb00000005006011b800300237000a
:1014e000c70ade00f107b200f50fb20008003200b3
:1014f000e1cf4200020032000170a000240005008c
:10150000810f70000100320004080500440005004e
:10151000810f700002003a00140005008502e90006
:101520000000400081c04800fcff3b000170a000ab
:10153000240005006022b800060220000000d00050
:101540008180d2000482d2008582d2000000a000f7
:101550000202520083825a0003003100020242005c
:1015600083824a000000a1000603e900f3ff3a006d
:101570000000060007f82700078361000638e10035
:1015800004003a00f7072000878361008703710099
:1015900001003a0003f0a200889fbe008a9fbe00af
:1015a0008c9fbe00470ade000480a100c71ade003f
:1015b0000580a1000700280007856000878561007d
:1015c000f70f20000720e1009e0032000728e1000d
:1015d0009c003200010678000400e000b4003200f4
:1015e000f7072000878060000170a0000500e00080
:1015f000c0003200f7072000878161000370a0005f
:10160000050652000f003a000b50e1000b003200bb
:101610000308e10002003a000200e1007e0032000f
:101620000204500083845800040031000001fd00d2
:101630008101fd008402fd008a05fd006044b800c0
:10164000210037000520e10005003d000001fd00fc
:101650008101fd008402fd008a05fd00050652009f
:101660007a60e100050035000170a1004722dd002d
:10167000848070008a807000630037006044b80086
:10168000ef02660007ff2f00070666000500e00076
:1016900006003400f08312008714dd000511de001f
:1016a000071bdd00060171008519de007060e10096
:1016b00005003500090478008204780003017800f1
:1016c0008001eb00700656000b50e10003003a0069
:1016d00002004000838048000400370060041400ca
:1016e000e0841c0002005800838058000188a30099
:1016f000060032008100d1000080d3008984d3002d
:101700000884d3000402e800270037000178a30012
:1017100025003a000100e000030032008186cf007e
:10172000698656000a0037008c0020000000e000a7
:1017300004003a0009007800880478000004eb00f7
:10174000700252008086cf000d0646000c06e900ac
:101750007060e10006003500800078000900780024
:10176000880478000004eb007006560070025200f6
:101770000c00e0000c0034008c08dd00f0031600c3
:101780000703de00868070000c00dd00074bde00e2
:10179000060070008c4cdd000743de008684740078
:1017a0000c44dd000c0252006120e10020003500f5
:1017b000610160000700280087816400f7ff2700af
:1017c00087836400070374000300e0000600320012
:1017d00082037300040032000000e800e08048004b
:1017e0000188a3000e003a00f70f20000720e10057
:1017f0004a003d000170a1004722dd008100720017
:101800008a8070000000be004f06be004f05be007b
:101810004f04be00000006006000b800faff370069
:101820008100d1000080d3000402e800eeff370001
:101830000401780089017400c20007008a807000ea
:10184000f1ff370018010700070278000001fd00d2
:101850008101fd00140107008702780085037200f2
:101860000778a300040032000001fd008101fd00a3
:1018700027010700e4ff3700850362000768a30023
:10188000080032000b50e10003003200f0ff2f008f
:10189000f1ff2700dcff37000001fd008101fd00a2
:1018a000d9ff37000468a300d7ff3200faff3700e2
:1018b000f8ff2700888360000b003a000000e0007a
:1018c00009003a008303640082837300020032003f
:1018d0000200be00ccff37000b50e100ceff3a0003
:1018e0000200be00c8ff3700140020008100640021
:1018f0003eff3700f8ff27008883610004003a00ac
:101900000200e00002003a008c007800beff3700c1
:10191000150020008301640039ff370001f827001b
:101920000000200081007500b7ff370003836800c6
:101930000700280007036300470ade000480a100b7
:10194000c71ade000580a100f70f20000720e10084
:10195000420032000728e10040003200889fbe00ac
:101960008a9fbe008c1f7800f107b200f307b20017
:101970000400e000640032000170a0000500e000f7
:10198000680032000370a00085054200eb07b1003b
:101990000204b8000302b8008484440060854a0051
:1019a000020ab800848444000a854a00030ab80089
:1019b00004054500040033000804d0008984d200e7
:1019c0000a85d2008b05e9006158e1003d00350031
:1019d00002102000090161000308200089816100d4
:1019e000f70720008783640008867300c84cde0078
:1019f000c853dd00878474004855de000300e00012
:101a00000600320082037600040032008904e800f8
:101a100060054d000a88a3000c003a00f70f200073
:101a20000758e10044003d000a70a100c75ddd00d9
:101a30000a8575008a007300090078004f06780057
:101a40004f05be004f04be00000006000a05d1008d
:101a50008984d3008b05e800f0ff3700881f7800e9
:101a60000604780090000700070278000001fd00de
:101a70008101fd008c000700870278008503720059
:101a80000778a300050032000001fd008101fd0080
:101a90009f0007004f0478000000060085037200d5
:101aa0000748a30003003200f0ff2f00f1ff2700da
:101ab000f8ff37000000200001f827008880700040
:101ac000f4ff3700880178004848dd00808171000c
:101ad0004848de00c850dd0001007000c850de003c
:101ae000060478000b01780016000700888070005b
:101af000d2ff37000500e00005003200170020008b
:101b00003a0007009dff370081037000f9ff3a009b
:101b1000860078004f0678004f05be004f04be00d7
:101b20000000050083037100f9ff32002700200048
:101b30002e00070094ff370001f827008680700010
:101b4000f4ff37000100e0002600320061011100bf
:101b50007810e10023003c006022b8007010e10022
:101b60000400350080027800010078008000eb005e
:101b7000700151000200e000090034007003110000
:101b8000062add00822ade008603dd0087827200dd
:101b90000200de00860bdd00070070008208de0018
:101ba00084817100f4ff2700048262008481710047
:101bb00004002800848262006102600005f0a60033
:101bc0000000060004827100070032000000e800f7
:101bd000e0804800000006000002be006000b8007f
:101be000efff37006000b80000000600889fbe00cd
:101bf0000004eb006138e10016003a000100e0004b
:101c000008003a00c800de004800dd00880020001f
:101c10000100e00003003a00c800de004800dd00db
:101c2000680444008184cf00e98454000600340035
:101c30008908dd00f08314008703de0087807000d0
:101c40000900dd0009044400610214004f04be00d5
:101c5000000006000300e00008003a00c811de00a2
:101c60004811dd00880020000300e00003003a0076
:101c7000c811de004811dd00680444008384cf00f1
:101c8000e9845400060034008919dd00f083140053
:101c90008713de00878171000911dd00090444000b
:101ca000e1021400e9ff37002700200001f0a7003f
:101cb00017002000470bde00f60fb20004003200d0
:101cc0000643e8000a0032004702b30000000600a5
:101cd00001037800f607b2000603700002003a0024
:101ce0000703b300000006008702b30000000600ef
:101cf00001037800f607b20006037000020032000c
:101d00000770a000000006000760a00000000600a9
:101d10000478a300040032000578a3000300320019
:101d20000168a30001003a000200be000160a000ab
:101d300000000600889fbe008a9fbe00841f7800b6
:101d40006c0007004f00780011003300f0ff2f00f7
:101d5000838f6c0006003b00040565000a00a700a5
:101d60000800370009f0a600100020000800370026
:101d7000820f5400838f5c000300390010002000a4
:101d800001003e000000200009f0a7000000ea006a
:101d90004f05be004f04be000000e000000006003a
:101da000889fbe008a9fbe000082700004027100fe
:101db00004827100260032000004be000200be0052
:101dc0006011b8006b092000950220000182cf004d
:101dd0000a0039000541b1000082cf000700390038
:101de0000541b1000982cf00040039000541b1006e
:101df0000882cf00010039000541b10005425200c0
:101e0000120032000a003b0082817100610164000f
:101e10008100d1000080d3008984d3000884d300de
:101e20008b05e8000442e800f7ff3a00070037009e
:101e30000804440089844c00000048008180480068
:101e40008b05e9000442e900f9ff3a0003000700ae
:101e50004f05be004f04be000000060081002000b8
:101e6000618055000b003d000b00200061fe2f003b
:101e70000100e1001d0034008281710061016400f5
:101e80008904d1000884d3000000e800faff3a007a
:101e90007100200061006400030070000200600017
:101ea0000900320061044400e0844c000988a50068
:101eb000050032008b05e8006808e10002003a00e6
:101ec0008904d1000884d300f20f20000258e100f9
:101ed00005003d00c75ddd00f907b200898075008f
:101ee00008007800000006000bf827008b0078003f
:101ef000000005000004be0079fd07000003be00dd
:101f00000405be000200be0075fd0700844f750089
:101f1000000006008001e90002814000828f50002d
:101f200001003a0000000600b1697800fbff3700ad
:101f30000000fa0082ff2f000f014100cfb8970088
:101f40007d0107000080fa0000000600060007007f
:101f50005b000700bd000700e500070091000700d7
:101f60009a0407002c043700e4874700889fbe00ce
:101f70008a9fbe008c9fbe008e1f780000067800ee
:101f80000104780091069000210590001107780067
:101f90008ebf9f00b10590003202be002203be003a
:101fa0000400be000601be004f98de00e1046000a0
:101fb0000900e0003f00320060021200e0821a00d7
:101fc00060031b00e0831b000d00e00007003500ec
:101fd0000e10a1008ebf9f000900e00003003a0030
:101fe0000fb897000028a300270032008a00e900fc
:101ff00003ff2f008f814100a2002000080078001d
:10200000710307000900e00003003a008fb8970051
:102010000128a300200032000000e900d1c2b30073
:102020000900e00001003a00b1c2b30000814500a0
:1020300001497800e80044001101e9000001510065
:10204000808045000fba97008a0178000c00780064
:10205000510107009c0090000188a3000400320099
:1020600098009000810f500001003d0001007800b1
:102070004f0778004f06be004f05be004f04be005c
:102080004f00b100000006000038a300d7ff3a005f
:102090008a007800d6ff37000138a300e5ff320040
:1020a0000000e9008080450002c2b3008248780049
:1020b000e0ff37000d00e000c5ff3d00c8ff37001e
:1020c0000200fa00889fbe008a9fbe0000057800cb
:1020d00001047800a105900011007800b0bf9f00b6
:1020e000b1049000910090000100e0000200350072
:1020f0000010a100b0bf9f003202be002203be004c
:1021000063ff2f008f814100820020008b00780048
:10211000080078002c0307003fb99700f000610029
:102120000100e000040032000000e900808044006b
:1021300002c3b300824878003fb99700e80061000d
:102140000100e000040032000000e900808044004b
:1021500002c2b30082487800e80044001101e9009f
:1021600000015100808044003fba97008b01780045
:102170000a007800080107009a0090000188a30077
:102180000400320098009000810f500001003d00d3
:10219000010078004f05be004f04be000080fa0029
:1021a00000000600ea874700889fbe008a9fbe00a5
:1021b0008e1f780080047800020778000300780002
:1021c00082e2260053c72600f2b79f0083bf9f001c
:1021d000c296220092bf9f000041eb00c2f79f0011
:1021e0001104900021059000910578000e00e00098
:1021f00002003a00eefe2f000f0747000000e0004b
:1022000002003a000e007800d40207000800e00047
:1022100003003500880f50000100360008007800e8
:102220000b0278008a017800000178008e007800a7
:1022300009007800d80007004f0778004f05be005e
:102240004f04be00af00b100000006000200fa001b
:10225000889fbe008a9fbe000005780001047800b8
:10226000a105900011007800b0bf9f00b10490005c
:10227000910090000100e000020035000010a10074
:10228000b0bf9f003202be002203be0063ff2f00da
:102290008f814100a20020008b00780008007800a8
:1022a000c9020700e80044001101e90000015100e3
:1022b000808044003fba97008b0178000a007800c4
:1022c000b50007009a0090000188a30004003200c6
:1022d00098009000810f500001003d00010078003f
:1022e0004f05be004f04be000080fa00000006004b
:1022f000fa874700889fbe008a9fbe008c9fbe0061
:102300008e1f7800e0af9f000105780082bf9f001c
:10231000a3df9f0091009000aa0690009a05780024
:10232000ba0490000100e000570035000b10a10036
:102330007081650082b79f000fb997003202be001e
:102340002203be008fb197000300e000500032006e
:10235000e00f5200e08f5a00e00f5b00e08f5b005f
:102360004b0032000d86e90068816500f2af9f00e6
:102370000200e000010032000c06e90068004500a0
:102380001004e900088044000048eb0001077800d1
:10239000e10f54000d003400e00f5200e08f5a00ae
:1023a000e00f5b00e08f5b003b003a000e00e000b6
:1023b00039003c00010056000e0040000000e00023
:1023c000020034000b18a30033003a000fb297004c
:1023d0000400e0000f0032000fba97003400be0086
:1023e0002401be00e00f5000e08f5800e00f5900bc
:1023f000e08f59000700320008804400afd89700f2
:1024000071f89f000884e9000880440001c3b3000c
:10241000014878007fa997000200e0000400320024
:102420000804e9000880440001c2b30001487800b4
:10243000680045001001e90008015100888044004f
:102440000b0278008d0178006fa8970052000700fa
:10245000efa99700930090000188a30004003200c8
:102460009a009000810f500001003d0001007800ab
:102470004f0778004f06be004f05be004f04be0058
:10248000af01b1000000060011002000a8ff3700d6
:102490000d067800b4ff37000804e9006f00620001
:1024a000e90f500022003c000003b000afd99700b4
:1024b0008301fb00f2fb2f0003014100f90f5100e3
:1024c00010003e00800178000350a0001306b10008
:1024d000f98f51000b003e00d1b79f0094b79f00c9
:1024e000a5b79f00b6b79f00c7b79f009f0307001f
:1024f000cfb397003fb39700afb297001fb29700da
:10250000dfb0970088814400804978000e07e90019
:10251000430020008703d1000683d3008582d300c7
:102520000482d3008301e900faff3a0098ff3700e4
:102530007005b000ddff37008201780001017800ee
:10254000f1ff270086023700889fbe000004780054
:10255000c0049000828f540001003600820478008d
:102560000900e0000a0032000901780058009000dc
:1025700068fe07006a004400108044005004980080
:10258000c800900089845000490498000048eb007e
:102590004f04be0000000600f2874700889fbe007f
:1025a0008a9fbe008c9fbe008e1f780000057800b9
:1025b000010678000204be00e10562000b00e000a5
:1025c00002003a00828f51000e003e0008017800a0
:1025d0008c0078000a007800dbff0700888f540029
:1025e00008003e0088047800090078004f07780052
:1025f0004f06be004f05be004f04be002f01b100c4
:1026000000000600888654000d0778000d01780050
:10261000f08f560001003600020120000102200068
:1026200020fe2f000f004000c5010700ef0f5700ec
:102630000f003e004469de0000ff2f008091b900ca
:102640000d01410021fe2f008f8040000a0078001c
:10265000bdff07000b00e000e3ff3a00080178002f
:102660008c0078000a007800b7ff0700deff370013
:102670000201200021fe2f008f8040000a00780018
:10268000b1ff070070075700e8ff370000000500a2
:1026900000000500000005008040eb008181fb0088
:1026a00083814100827721000301410012427800ba
:1026b0000404e00003003a009240900001407800da
:1026c0000000060090017800934f520005003a0088
:1026d000924090000308e800eacf5000efff360078
:1026e000f6ff37008140e800fbff37009400fa0056
:1026f000889fbe008a9fbe008c9fbe0000057800a8
:102700008204780091bf9f008005eb009fb897007e
:102710001104e000030132000000eb0080b79f00cd
:102720000081eb0092b79f00a0b79f0000f62f003a
:102730000f004000b0b79f0000082000c0b79f0006
:102740000004eb0008804000104078000004e00026
:102750000300320052c2b300824f500028003a00fa
:102760000800e00006003200080178000a00780046
:1027700075ff07009fb897008880400091bf9f00b9
:102780009fbe970050c2b3009d4f1000df003a007b
:102790008d06e8009dbf9f001fb89700904078000d
:1027a000b2c2b30082cf50001d00320082cf500071
:1027b00024003c0002c2b30082cf50001b00320054
:1027c00032c2b30082cf50001b003200a2c2b3005d
:1027d00082cf500024003200bd020700a0b79f0046
:1027e0009fb897001100fb000003b100e90f5000f3
:1027f0002a003e008100e80091bf9f00f8ff3700eb
:102800000804e800cfff37008fb097000100a00058
:1028100081b79f000000e80090bf9f00deff3700f7
:102820008fb097000120a000f9ff37008fb097000c
:102830000130a000f6ff37008fb097000140a000e4
:10284000f3ff3700d2c2b30082cf5000eeff320058
:1028500002c3b30082cf5000dcff3a008fb0970074
:102860000110a000eaff37000000e80090bf9f00c1
:1028700019007800808ce90070b89700a0b79f001d
:102880000000e00005003d008fb09700e180680087
:1028900081b79f000000ea00a0b79f000fb097002b
:1028a0000008a300020032000010a10080b79f00c2
:1028b0009fb89700e0c2b300914f10000e003a009d
:1028c0000000eb0090b79f000100e80090bf9f0060
:1028d00091419000a2c2b30082cf510026003a007d
:1028e0008180e80091bf9f0019007800808ce9008a
:1028f00070b8970090b79f0020ff2f000f00400096
:1029000065ff0700004678001fb897001000fb0025
:102910008f02070091062000810f500087003200cf
:10292000810f500036003c0031062000810f50001e
:10293000e4003200810f500019003c0051022000d9
:10294000810f5000f100320011062000810f50006d
:102950005c0032009dbf9f000000eb0080b79f002d
:10296000a0b79f000080eb0090b79f000002eb0033
:102970008001eb00ed0037005502070090b79f0083
:102980009fb897001100fb000003b100e90f500051
:10299000d9ff3e008100e80091bf9f00f8ff37009b
:1029a00041062000810f50006400320071062000b3
:1029b000810f5000e7ff3c008c80fb00090178008c
:1029c000a0fe2f000f0040006f0207000000e00093
:1029d000b80032001fb897008000e80091bf9f0048
:1029e00090417800a2fe2f000f01410001fe2f0050
:1029f0008f8040000a00780025ff07004200370062
:102a000001072000810f500083003200810f500029
:102a100018003c00e1062000810f50009f003200aa
:102a2000f1062000810f5000caff3a008c80fb00a5
:102a3000890178000001eb00a0fe2f000f0040008c
:102a4000750107000000e0009a0032001fb89700ef
:102a50000000e80090bf9f00a2fe2f000f01410080
:102a600001fe2f008f8040000a00780094fd0700cf
:102a70002500370051072000810f5000410032002f
:102a800081072000810f50005000320031072000e4
:102a9000810f5000afff3a0000c8b300804f5600ce
:102aa00084003a009fb897008100e80091bf9f0022
:102ab00019007800808ce90070b997008001eb0064
:102ac0008d0037008c80fb0009017800a0fe2f00ec
:102ad0000f0040002c0207000000e00075003200eb
:102ae0001fb897008000e80091bf9f0090417800d8
:102af000a2fe2f000f01410001fe2f008f80400039
:102b00000a007800e2fe0700000444000884450043
:102b1000888f550088003400b004200070bc880005
:102b20008085eb000b0078004f06be004f05be000d
:102b30004f04be000080fa00000006008c80fb00fd
:102b40008901780012002000a0fe2f000f00400035
:102b5000310107000000e000560032001fb8970066
:102b60000000e80090bf9f00a2fe2f000f0141006f
:102b700001fe2f008f8040000a007800fafc070059
:102b8000e1ff37008c80fb00890178000001eb0039
:102b9000a0fe2f000f0040001f0107000000e00012
:102ba000440032009fb897008100e80091bf9f0069
:102bb000a2fe2f000f01410001fe2f008f80400078
:102bc0000a007800a1fd0700cfff37008c80fb00d2
:102bd000890178000001eb00a0fe2f000f004000eb
:102be0000d0107000000e000320032001fb897001e
:102bf0008000e80091bf9f0090417800a2fe2f0066
:102c00000f01410001fe2f008f8040000a00780074
:102c1000b7fd0700bcff3700890178000001eb0019
:102c2000010f2000a0fe2f000f004000fa00070057
:102c30000000e0001f0032001fb897000000e8000d
:102c400090bf9f005fb09700efb097007fb19700f3
:102c50008fb99700e00f5000e08f5800e00f590047
:102c6000e08f59000b003a008fb697002fb69700ff
:102c700000772100390007000d0278008c017800f0
:102c800000017800017721000a00780042fe070069
:102c90009dff370083c7b300d8ff37000881450088
:102ca0008c80fb0089017800a0fe2f000f004000ff
:102cb000460107009fb897008100e80091bf9f0080
:102cc00092ff370000c8b300804f5600f9ff3a006a
:102cd0001fb897000000e80090bf9f00190078001f
:102ce000808ce90060f89700a0ef9f00130020009f
:102cf000a2fe2f000f01410001fe2f008f80400037
:102d00000a00780027fd07007fff370000c8b300e6
:102d1000804f5600e7ff3a001fb897000000e80018
:102d200090bf9f000fb29700afb197001200200034
:102d300061772100d4ff37008805780073fe3700e3
:102d40000200e00004003200800178000201e90086
:102d50000280090081597800000006008000780098
:102d60000108a3000f003a0001027800b4017800c6
:102d7000f2ef2f00030141008381ea0003016100ab
:102d800003082800030161000200e0000c0032008b
:102d9000010178003204e000050032008200780072
:102da000fbff3700010178003204e00002003a0026
:102db000008050000000060082007800e8ff370025
:102dc00084007800e8ff3700ee874700889fbe0048
:102dd0008a9fbe008c9fbe008e1f7800d4b79f00d4
:102de000e5b79f00f6b79f0087bf9f00b1b79f0070
:102df0000206be003007900093007800c1b79f0024
:102e000090059000680040001000e9000004780080
:102e10000b00e00001003d001b0020000000470007
:102e20000048eb000b057800190020000800e000c6
:102e30001d003c000900e000470032000800780057
:102e40004f0778004f06be004f05be004f04be007e
:102e5000ef00b100000006006162b900612bb9000b
:102e60005fb09700efb097007fb197008fb99700e0
:102e70004a030700270037006162b900612bb900df
:102e80005fb09700efb097007fb197008fb99700c0
:102e90003b030700d0b79f00e1b79f00f2b79f0048
:102ea00083bf9f00e1ff37005fb09700efb097004e
:102eb0007fb197008fb99700e00f5000e08f580066
:102ec000e00f5900e08f59000a003a000a00e000c4
:102ed00008003c00bfb097000b8050000a00400083
:102ee0000000e000d3ff34004fb197000218a300a8
:102ef000d0ff32000804e900ea0f5600d6ff3a007e
:102f00005fb09700efb097007fb197008fb997003f
:102f10006a020700800478000800470002c3b3007b
:102f200002c844000a05e900ea0f5600d2ff3a0041
:102f30005fb09700efb097007fb197008fb997000f
:102f400005020700d0b79f00e1b79f00f2b79f00ce
:102f500083bf9f00b5ff37001d40a100b7ff3700ba
:102f60001000fa0001027800820078000081eb0076
:102f700082bf9f002210200092bf9f000000e0004f
:102f800001003a000f80e900a0bf9f00b4bf9f007e
:102f90008002eb000400e000010032008402e9003e
:102fa000c5bf9f000400e00005003d00b004200004
:102fb00070bc88000080eb000080fa000000060072
:102fc0000048eb00e0bf9f00d0bf9f0003017800e6
:102fd00000ff2f000f00400001000700f6ff370040
:102fe0000200fa00881f780000047800e2bf9f000a
:102ff000c2ff2f000f014100bcfd070098009000a8
:103000000148a300010032000080eb004f0478006b
:103010000080fa000000060084082000848f500021
:1030200037003200848f500018003c001408200044
:10303000848f500042003200848f500004003c0016
:1030400004082000848f50005a0032000000050060
:1030500024082000848f50004300320044082000e0
:10306000848f5000f9ff3a00130278008480e90051
:103070000200e00074ba97008109780049003a0024
:103080008002eb006033b80026003700040a2000fd
:10309000848f500040003200848f50000e003c00ae
:1030a00004092000848f5000e8ff3a009300780064
:1030b000e88050003102be002103be008109780083
:1030c0000498be000690be00100020000200e00040
:1030d0003700320000000600020c2000828f5000f2
:1030e00003003200020f2000828f5000d7ff3a0009
:1030f000930078008189e90071ba9700e0ff3700fa
:10310000130278008480e9000200e00074ba97009e
:1031100081097800060032000402fb00cfa2de0025
:10312000612bb9000498be000690be001000050097
:103130000482fb008002eb006033b800f9ff370027
:10314000930078004102be00810978000200e0008f
:10315000030032004fabde0086037800f1ff37003a
:103160006033b800efff370093007800e88050002c
:103170003102be002103be00810978000498be0020
:103180000690be00100020000200e00001003200a6
:103190000000060000000600930078008189e90025
:1031a00071ba9700cfa2de00612bb900ddff3700b6
:1031b00000000600930078000182e900840978008d
:1031c00071ba97000200e000acff3700440820000d
:1031d000848f50000b003200848f50000f003c00a1
:1031e00014082000848f50001a00320024082000a8
:1031f000848f50001e00320004082000848f50008d
:103200000e003a00930078008189e900f1b8970038
:1032100001087800820878001400370004092000b3
:10322000848f500021003200848f500004003c0045
:1032300084082000848f5000160032000000050032
:10324000040a2000848f5000eeff3200040c20009e
:10325000eaff3700930078008189e900f1b8970010
:10326000010878006111b9008288be0010000500d5
:10327000930078008189e900f1b89700010878008f
:103280006112b900612bb9008498be008690be001f
:10329000f6ff3700930078008189e900f1b89700c4
:1032a0000108780082487800f0ff3700930078002a
:1032b0008189e90071ba9700040878006110b900ab
:1032c0006109b900009abe000292be00e7ff370014
:1032d00080007800104178000000e80003c2b300cd
:1032e000834f5100faff32008201fb00e981510057
:1032f000e48f5100f6ff3600b0c2b3008001eb004e
:10330000804f510004003200d0c2b300804f510002
:1033100002003a00130020008100e8008100e9006b
:103320000000eb0002003700ea00b9000200500084
:103330005101fb000203b100e90f5100faff360012
:103340000300e00001003a000000ea00000006006f
:10335000f1fb2f0080804000f98f500001003e00fb
:103360000050a00000000600f9ff3700f1f92f001f
:1033700080804000f98f500001003e00f005b2004f
:1033800000000600f9ff3700881f7800000478006d
:103390000000eb0003082000838f50001000350070
:1033a00010082000808f50000f0034000000eb0058
:1033b00033082000838f500009003a001200780083
:1033c0006809500040ba9700d0ba970060bb9700d8
:1033d000f0bb9700049cbe000694be0010002000c5
:1033e0004f047800000006001200780064095000c5
:1033f000f0b8970060b89700b8000700009cbe00c6
:103400000294be00f5ff370084082000848f50002e
:1034100037003200848f500018003c001408200050
:10342000848f500042003200848f500004003c0022
:1034300004082000848f5000600032000000050066
:1034400024082000848f50004300320044082000ec
:10345000848f5000f9ff3a00130278008480e9005d
:103460000200e00074ba9700810978004f003a002a
:103470008002eb006033b80026003700040a200009
:10348000848f500046003200848f50000e003c00b4
:1034900004092000848f5000e8ff3a009300780070
:1034a000e88050003102be002103be00810978008f
:1034b0000498be000690be00100020000200e0004c
:1034c0003d00320000000600020c2000828f5000f8
:1034d0002d003200020f2000828f5000d7ff3a00eb
:1034e000930078008189e90071ba9700e0ff370006
:1034f000130278008480e9000200e00074ba9700ab
:1035000081097800060032000402fb00cfa2de0031
:10351000612bb9000498be000690be0010000500a3
:103520000482fb008002eb006033b800f9ff370033
:10353000930078004102be00810978000200e0009b
:10354000030032004fabde0086037800f1ff370046
:103550006033b800efff370093007800e880500038
:103560003102be002103be00810978000498be002c
:103570000690be00100020000200e00001003200b2
:103580000000060000000600c1ff2f0093894000e4
:10359000930078001102be006033b800ddff3700f1
:1035a000930078008189e90071ba9700cfa2de000c
:1035b000612bb900d7ff37000000060093007800a8
:1035c0000182e9008409780071ba97000200e000e6
:1035d000a6ff370044082000848f500030003200de
:1035e000848f50000a003c0014082000848f500093
:1035f0001b00320024082000848f50001f0032007e
:1036000004082000848f50002500320000000500cf
:1036100004092000848f500027003200848f50005e
:1036200009003c0084082000848f5000f7ff3a0016
:10363000930078008189e900f1b8970001087800cb
:103640008248780015003700040a2000848f50005b
:1036500013003200040c2000848f5000ebff3a006e
:10366000930078008189e900f1b89700010878009b
:103670006111b9008288be0008003700930078000d
:103680008189e900f1b89700010878006112b9005a
:10369000612bb9008498be008690be001000050022
:1036a000930078008189e900f1b89700010878005b
:1036b00082087800f9ff3700930078008189e900db
:1036c00071ba9700040878006110b9006109b90067
:1036d000009abe000292be00f0ff3700810378001e
:1036e0007ff707000001be006000b8000478a30067
:1036f00013003a006220e10015003e000d00390081
:103700008301d1000281d3008180d3008301d100e5
:103710000281d3008180d3008301d1000281d300d4
:103720008180d3000538b000c42add00f300b20068
:103730008381720007f0a70003f0a00000000600dc
:1037400083ff2700020020006110b900f9ff370055
:1037500003ff2700f7ff37001200fa00f4ff2f00e5
:10376000050020006033b8000400e1000588e10096
:103770000690e1000798e10007003e00a400200049
:10378000050009000480d8008000eb006011b8003b
:103790000080fa00000006008e1f7800d4cc2c00b8
:1037a000c5cc2c00c6cc2c00c7cc2c0025000700b3
:1037b0004e009000de0090006e019000fe0190002f
:1037c000340020008301d1000281d3008180d30026
:1037d0000080d3000402e900faff3a008f87e90075
:1037e000ebff37000504b8001e1f4400050db800ac
:1037f0001e8f4c000c86d2001e1f45000514b80019
:103800001e8f4d008d86d2000c86d3001e1f4c00eb
:10381000051db8001e8f4c000c86d2008d86d3008b
:103820001e1f4d009e854d008d86d2000c86d30054
:10383000609f4d00608f4e008006eb004fb79700f1
:1038400000000600889fbe008a9fbe008c9fbe00bd
:103850008e1f78006066b8006fb797000404b80048
:10386000081f7800040db8000a9f44000414b80033
:10387000089f4d00041db8000a9f4c00609f4d003a
:10388000608f4e006fb7970062074700d5ff0700b3
:103890006407470086027800d2ff070066074700ea
:1038a00087027800cfff07004f0778004f06be0061
:1038b0004f05be004f04be00000006001200fa00d3
:1038c000889fbe008a9fbe000205be000004be00a5
:1038d000f0ff2f00010020006011b8000040e1005f
:1038e00001c8e10002d0e10003d8e10009003e0078
:1038f000a2002000050009000284d8006108b80079
:103900006011b8004f05be004f04be000080fa00f1
:10391000000006000800be000a01be008eff07007e
:103920008e1f7800a4002000050020006033b8003e
:10393000c4ff07003e005400be805c003e015d00f5
:103940009e815d006e00b1008f87e900edff3700ba
:103950004f02b000889fbe008a9fbe008c9fbe00b1
:103960008e1f7800d4b79f00e5b79f00f6b79f0081
:1039700087bf9f0004042000c4b79f000006eb002f
:103980006044b8006055b80088b79f0099b79f00a1
:10399000aab79f00bbb79f000c0746000fb4970063
:1039a0009fb497002fb59700bfb597004f5ade0020
:1039b0008e0672000802440089824c000a034d0002
:1039c0008b834d004f1cde006055b8008004eb0077
:1039d00008027200898272000a0373008b837300ed
:1039e000c4af9f00d5af9f00e6af9f00f7af9f0029
:1039f0000004400081844800020549008385490095
:103a000088af9f0099af9f00aaaf9f00bbaf9f00f8
:103a10000800be000a01be000c00e0002d003d00c1
:103a2000450007000440e10005c8e10006d0e100c0
:103a300007d8e1003e0036000d06e8000c00e0006b
:103a40000b00350010002000010020006011b800bc
:103a50000fac97009fac97002fad9700bfad9700bc
:103a6000000074008180740002017500838175007c
:103a7000cfb497008904e900c9b79f000900e000ae
:103a8000c5ff3a000c00e00005003d000fb29700b2
:103a90009fb297002fb39700bfb39700260007008f
:103aa000cfa497000900e00004003a000fb097008f
:103ab0009fb097002fb19700bfb197004f077800d4
:103ac0004f06be004f05be004f04be004f02b100be
:103ad00000000600250007005fb49700efb49700d0
:103ae0007fb597008fbd97000802520089825a0067
:103af0000a035b008b835b0084b79f0095b79f0030
:103b0000a6b79f00b7b79f001c0020001700070052
:103b10000820e10009a8e1000ab0e1000bb8e100cb
:103b2000010039000006eb000c865600c3ff370089
:103b30000d067800c1ff37003fb49700cfb497005f
:103b40005fb59700efb597000802420089824a00ee
:103b50000a034b008b834b00e4af9f00f5af9f003f
:103b600086b79f0097b79f00000006002faa970016
:103b7000bfaa97004fab9700dfab9700000006008d
:103b8000881f780018002000881f780070ff070049
:103b90008f87e9004f04780000000600801feb00cb
:103ba0006bff07008f87e90000000600881f780080
:103bb000e00f5000e08f5800e00f5900e08f5900ef
:103bc0000c003d0011000700180020001400070041
:103bd00002003d00170007000004eb00e8ff0700ab
:103be0000800e00001003200080007004f047800e0
:103bf000000006000004eb0009000700f7ff3d008d
:103c00000c00070018002000f4ff370060001000cf
:103c1000e080180060011900e08119000000060032
:103c2000e00f5200e08f5a00e00f5b00e08f5b0076
:103c30000000060060021200e0821a0060031b0010
:103c4000e0831b0000000600889fbe008a9fbe0024
:103c5000e00f5200e08f5a00e00f5b00e08f5b0046
:103c600004003d0060021200e0821a0060031b00a5
:103c7000e0831b000004eb00e00f5000e08f5800d1
:103c8000e00f5900e08f590002003d0008000700d6
:103c900018002000c1ff07000800e000010032000a
:103ca000030007004f05be004f04be0000000600e1
:103cb00060001000e080180060011900e081190028
:043cc00000000600fa
:020000040000fa
:103cc400303000002e300000322e00003030000072
:103cd40030300000002000002020000020440000bc
:103ce400414200002020000020200000000d0000c0
:103cf4004441000042200000626f00006172000035
:103d040064200000686500006174000020730000f6
:103d1400696e00006b200000546500006d700000a7
:103d24006572000061740000757200006520000077
:103d34006973000020250000642000006465000011
:103d4400677200006565000020430000656c000098
:103d5400736900007573000020200000000d00004e
:103d640020440000756100006c20000041630000e5
:103d7400746900007665000020420000726900004a
:103d840064670000652e0000203600003442000005
:103d9400206600006978000065640000206c000063
:103da400656e000067740000682000004c6f00001e
:103db400672e0000204d0000736700004e6f000066
:103dc4002025000064200000000d000020440000b5
:103dd400756100006c2000004163000074690000fc
:103de40076650000204200007269000064670000ec
:103df400652e00002041000046540000455200009a
:103e04002052000045530000455400002053000098
:103e140059530000544500004d2000005354000045
:103e240041520000545500005020000020000000c2
:103e3400782400009c2500003e210000342100006d
:103e4400482100004c2100005021000054210000b2
:103e54000c2700007c210000a4210000d4210000d4
:103e6400fc2100008a270000da2700002c22000031
:103e74005a22000082220000aa220000d22200005e
:103e8400fa220000222300004a2300007a230000c3
:103e94002a280000e2280000522a00009a29000083
:103ea400000000000000000000000000000000000e
:103eb40000000000000000000c210000e4200000cd
:103ec400082d00000024000028240000a223000084
:103ed400ca23000050240000202b00009a2b00006d
:103ee400142c00008e2c0000a82600000000000006
:103ef400b2260000000000000001000002030000e0
:103f04000405000006070000080c0000101400005f
:103f14001820000030400000e63200009430000019
:103f240076300000302d0000fc300000f22d00003f
:103f34000c31000082340000082e0000102e000016
:103f4400d63200008e3300007c2f0000fa2d0000d2
:103f5400022e0000c6320000382d0000dc2d0000c7
:103f6400182e0000222e00002a2e0000322e0000ff
:103f74003a2e0000422e00004a2e0000522e00006d
:103f8400ce380000743600009034000094340000f1
:103f9400983400009c340000a0340000a2340000d7
:103fa400dc3400002a350000503500005435000090
:103fb400583500005c35000024380000ba39000090
:103fc400e49f00002e380000ca3800003838000092
:103fd4000000000062350000aa350000f235000040
:103fe4002c360000cc3900002e3700003837000092
:103ff4003e5100005a5100006c51000086510000ef
:104004009051000098510000a6510000b4510000e6
:10401400b85100000000000000000000bc51000086
:10402400d4510000dc5100003a520000425200001a
:1040340054520000b2520000e4510000000000009d
:10404400000000000000000000000000000000006c
:1040540000000000164200004a4200005a420000dc
:10406400a6420000ca420000124300007645000048
:10407400c2440000ec440000404500000843000036
:1040840020430000425d00006a5d00008e5d000078
:10409400925d0000865d0000a45d0000ae5d00003e
:1040a40054a00000965d00009a5d00009e5d000033
:1040b400c05d0000e85d00000c5e0000105e0000c2
:1040c400045e0000225e00002c5e00006aa0000076
:1040d400145e0000185e00001c5e00003e5e0000de
:1040e400645e0000885e00008c5e0000805e00005c
:1040f4009e5e0000a85e000080a00000905e0000ac
:10410400945e0000985e0000ba5e0000e45e000069
:10411400065f00000a5f00000e5f0000125f0000ef
:104124000000000000000000165f00001a5f00009d
:10413400245f0000bc620000d0620000dc6200006a
:10414400e4620000ea620000b0620000b6620000af
:10415400ee620000f4620000000000003a5a000021
:10416400645a00008a5a0000925a0000e25a000081
:10417400aa5a0000c65a00009a5a0000a05a000029
:1041840000000000cc5c0000ea5c0000c45c00009d
:10419400c85c00000a5d000000000000f85c00003c
:1041a400025d0000125d0000ce450000e8450000fd
:1041b40010460000fe45000022460000544800005e
:0441c400644800004b
:020000040000fa
:1041c800e20f500010003200e20f500006003600e7
:1041d800e30f50000a003200e40f500006003a00d6
:1041e800cde3a80000000600e10f500003003a00ec
:1041f8002be3a800000006000000060000000600ef
:1042080097e3a8000000060061e3a800000006008c
:10421800e20f500010003200e20f50000600360096
:10422800e30f50000a003200e40f500006003a0085
:10423800cde3a90000000600e10f500003003a009a
:104248002be3a9000000060000000600000006009d
:1042580097e3a9000000060061e3a900000006003a
:104268002be3a80061e3a80097e3a800cde3a8002a
:10427800000006002be3a90061e3a90097e3a90069
:10428800cde3a900000006005018880000000600d1
:10429800401888000000060030188800000006005a
:1042a800e20f500010003200e20f50000600360006
:1042b800e30f50000a003200e40f500006003a00f5
:1042c800a11f880000000600e10f500003003a001b
:1042d800911a880000000600000006000000060091
:1042e800f11d880000000600411c8800000006003f
:1042f800e20f500010003200e20f500006003600b6
:10430800e30f50000a003200e40f500006003a00a4
:10431800811f880000000600e10f500003003a00ea
:10432800711a880000000600000006000000060060
:10433800d11d880000000600211c8800000006002e
:10434800e20f500013003200e20f50000700360061
:10435800e30f50000c003200e40f500008003a0050
:10436800dd210a00ce03000000000600e10f500026
:1043780004003a00dd210a002c03000000000600ba
:104388000000060000000600dd210a009803000076
:1043980000000600dd210a0062030000000006009c
:1043a800e20f500010003200e20f50000600360005
:1043b800e30f50000a003200e40f500006003a00f4
:1043c800711f880000000600e10f500003003a004a
:1043d800611a8800000006000000060000000600c0
:1043e800c11d880000000600111c8800000006009e
:1043f800e20f500013003200e20f500007003600b1
:10440800e30f50000c003200e40f500008003a009f
:10441800ba210a00d203000000000600e10f500094
:1044280004003a00ba210a00300300000000060028
:104438000000060000000600ba210a009c030000e4
:1044480000000600ba210a0066030000000006000a
:10445800e20f50000f003200e20f50000700360054
:10446800e30f50000e003200e40f500008003a003d
:10447800baa00a00d203000000000600e10f5000b5
:1044880003003a00baa00a0030030000000006004a
:1044980000000500baa00a0066030000000006003c
:1044a800baa00a009c03000000000600e20f5000ba
:1044b80010003200e20f500006003600e30f5000f3
:1044c8000a003200e40f500006003a00d3a3a80007
:1044d80000000600e10f500003003a0031a3a800d5
:1044e8000000060000000600000006009da3a800ca
:1044f8000000060067a3a80000000600e20f5000b5
:1045080010003200e20f500006003600e30f5000a2
:104518000a003200e40f500006003a00d383a800d6
:1045280000000600e10f500003003a003183a800a4
:104538000000060000000600000006009d83a80099
:10454800000006006783a80000000600e20f500084
:1045580010003200e20f500006003600e30f500052
:104568000a003200e40f500006003a00d3a3a90065
:1045780000000600e10f500003003a0031a3a90033
:104588000000060000000600000006009da3a90028
:104598000000060067a3a90000000600e20f500013
:1045a80010003200e20f500006003600e30f500002
:1045b8000a003200e40f500006003a00d383a90035
:1045c80000000600e10f500003003a003183a90003
:1045d8000000060000000600000006009d83a900f8
:1045e800000006006783a90000000600e20f5000e3
:1045f80010003200e20f500006003600e30f5000b2
:104608000a003200e40f500006003a00e11f88005b
:1046180000000600e10f500003003a00d11a88009c
:10462800000006000000060000000600311e880099
:1046380000000600811c880000000600e20f500000
:1046480010003200e20f500006003600e30f500061
:104658000a003200e40f500006003a00f11f8800fb
:1046680000000600e10f500003003a00e11a88003c
:10467800000006000000060000000600411e880039
:1046880000000600911c880000000600e20f5000a0
:1046980013003200e20f500007003600e30f50000d
:1046a8000c003200e40f500008003a00e11f8800b7
:1046b800f11f880000000600e10f500004003a00d6
:1046c800d11a8800e11a88000000060000000600e0
:1046d80000000600311e8800411e88000000060008
:1046e800811c8800911c880000000600e20f500021
:1046f80010003200e20f500006003600e30f5000b1
:104708000a003200e40f500006003a00b11f88008a
:1047180000000600e10f500003003a00a11a8800cb
:10472800000006000000060000000600011e8800c8
:1047380000000600511c880000000600e20f50002f
:1047480010003200e20f500006003600e30f500060
:104758000a003200e40f500006003a00d063a800b7
:1047680000000600e10f500003003a002e63a80085
:104778000000060000000600000006009a63a8007a
:10478800000006006463a80000000600e20f500065
:1047980011003200e20f500008003600e30f50000d
:1047a80011003200e40f50000a003a00801e800019
:1047b8004400de006140600000000600e10f500088
:1047c80004003a00701980004400de006140600077
:1047d8000000060000000500201b80004400de00e9
:1047e8006140600000000600d01c80004400de002c
:1047f8006140600000000600e20f50001000320027
:10480800e20f500006003600e30f50000a003200a5
:10481800e40f500006003a00c11f8800000006009f
:10482800e10f500003003a00b11a880000000600aa
:104838000000060000000600111e880000000600a7
:10484800611c880000000600e20f500010003200d2
:10485800e20f500006003600e30f50000a00320055
:10486800e40f500006003a00d11f8800000006003f
:10487800e10f500003003a00c11a8800000006004a
:104888000000060000000600211e88000000060047
:10489800711c880000000600e20f50001000320072
:1048a800e20f500006003600e30f50000a00320005
:1048b800e40f500006003a00dae3a8000000060002
:1048c800e10f500003003a0038e3a800000006009a
:1048d8000000060000000600a4e3a800000006008f
:1048e8006ee3a80000000600800820005019880028
:1048f800001b8800b01c8800601e88005e23ef0043
:104908003e23ef003c23ef0000a020006019880040
:104918004e23ef005023ef0080252000e01a880086
:10492800d01a880001022000b11988003110200037
:10493800a11988004223ef004023ef003a23ef003b
:10494800f4012000c4198800c300200093198800ce
:10495800022c2000821988004a23ef004823ef0028
:10496800713e2400911a88004c23ef004623ef0083
:104978004423ef002e23ef005423ef005623ef00cb
:104988005823ef009423ef007423ef007223ef0005
:1049980015202000151b88008423ef008623ef00d4
:1049a800901c8800801c88006c23ef0035002000d4
:1049b800551b88007823ef007623ef007023ef0063
:1049c800741b8800431b8800321b88008023ef007b
:1049d8007e23ef00411c88008223ef007c23ef0038
:1049e8007a23ef006423ef008a23ef008c23ef0083
:1049f8008e23ef00ca23ef00aa23ef00a823ef00bd
:104a080026202000c61c8800ba23ef00bc23ef0034
:104a1800401e8800301e8800a223ef00051d880074
:104a2800ae23ef00ac23ef00a623ef00241d88007f
:104a3800f31c8800e21c8800b623ef00b423ef00c3
:104a4800f11d8800b823ef00b223ef00b023ef0078
:104a58009a23ef00c023ef00c223ef00c423ef0026
:104a68000024ef00e023ef00de23ef003680200073
:104a7800761e8800f023ef00f223ef00f01f880075
:104a8800e01f8800d823ef00b51e8800e423ef005c
:104a9800e223ef00dc23ef00d41e8800a31e880069
:104aa800921e8800ec23ef00ea23ef00a11f880084
:104ab800ee23ef00e823ef00e623ef00d023ef001a
:104ac800f623ef00f823ef00fa23ef001023ef009e
:104ad8000e23ef000223ef000423ef000c23ef0066
:104ae8001223ef001423ef001623ef001823ef0022
:104af8001a23ef001c23ef000823ef005118880049
:104b08000623ef0010002000001888001e23ef0085
:104b18002023ef002223ef002423ef002623ef00b9
:104b28002823ef00006b2200f0ba8800000006007e
:104b38002be3a90061e3a90097e3a900cde3a9004d
:104b48002a23ef006023ef009623ef00cc23ef0029
:104b58005e23ef003e23ef003c23ef002c23ef0001
:104b68004e23ef005023ef005c23ef005a23ef00a1
:104b78003623ef003423ef004223ef004023ef00f9
:104b88003a23ef003823ef003223ef003023ef0001
:104b98004a23ef004823ef005223ef004c23ef0095
:104ba8004623ef004423ef002e23ef005423ef00a9
:104bb8005623ef005823ef009423ef007423ef00ef
:104bc8007223ef006223ef008423ef008623ef00b7
:104bd8009223ef009023ef006c23ef006a23ef008d
:104be8007823ef007623ef007023ef006e23ef00a9
:104bf8006823ef006623ef008023ef007e23ef0099
:104c08008823ef008223ef007c23ef007a23ef0054
:104c18006423ef008a23ef008c23ef008e23ef003c
:104c2800ca23ef00aa23ef00a823ef009823ef0080
:104c3800ba23ef00bc23ef00c823ef00c623ef0020
:104c4800a223ef00a023ef00ae23ef00ac23ef0078
:104c5800a623ef00a423ef009e23ef009c23ef0080
:104c6800b623ef00b423ef00be23ef00b823ef0014
:104c7800b223ef00b023ef009a23ef00c023ef0028
:104c8800c223ef00c423ef000024ef00e023ef006d
:104c9800de23ef00ce23ef00f023ef00f223ef0036
:104ca800fe23ef00fc23ef00d823ef00d623ef000c
:104cb800e423ef00e223ef00dc23ef00da23ef0028
:104cc800d423ef00d223ef00ec23ef00ea23ef0018
:104cd800f423ef00ee23ef00e823ef00e623ef00d4
:104ce800d023ef00f623ef00f823ef00fa23ef00bc
:104cf8001023ef000e23ef000223ef000423ef0040
:104d08000c23ef001223ef001423ef001623ef000b
:104d18001823ef001a23ef001c23ef000823ef00ed
:104d28000a23ef000623ef000023ef001e23ef0005
:104d38002023ef002223ef002423ef002623ef0097
:104d48002823ef00000006000000e0000100320008
:104d5800f0ba88000000060000000600e20f5000cc
:104d68001d003200e20f500007003600e30f50002c
:104d780011003200e40f50000e003a0008c8ab00e2
:104d88001d003a0000000600e10f500008003a003c
:104d98000868ab00fbff3200f1ba80000100e000b8
:104da80001003200010001000868a90000000600a7
:104db800000006000000060008a8ab00f1ff320062
:104dc800f1ba80000100e00001003200010001009a
:104dd80008a8a900000006000888ab00e9ff320017
:104de800f1ba80000100e00001003200010001007a
:104df8000888a90000000600f1ba80000100e00060
:104e0800010032000100010008c8a90000000600e6
:104e1800e20f500025003200e20f50000d0036006e
:104e2800e30f500018003200e40f500015003a005c
:104e380020210a00cc030000e28f50002c00320031
:104e4800a01e800054400a0000000000a01e880038
:104e580000000600e10f500009003a0020210a0076
:104e68002a030000e28f50002500320090198000cc
:104e780054400a0000000000901988000000060055
:104e8800000006000000060020210a00960300002a
:104e9800e28f500012003200f01c800054400a00db
:104ea80000000000f01c88000000060020210a0015
:104eb80060030000e28f500005003200401b8000b4
:104ec80054400a0000000000401b88000000060053
:104ed8001000200054200a006803000000000600ab
:104ee8001000200054200a009e0300000000060065
:104ef8001000200054200a00d4030000000006001f
:104f080054200a003203000000000600e20f50009f
:104f18001f003200e20f50000b003600e30f500074
:104f280014003200e40f500010003a00aaa00a0052
:104f3800d20300008140d00080c07000ba210a006e
:104f4800d203000000000600e10f500008003a00fc
:104f5800aaa00a00300300008140d00080c0700081
:104f6800ba210a0030030000000006000000060015
:104f780000000600aaa00a009c0300008140d0009f
:104f880080c07000ba210a009c03000000000600df
:104f9800aaa00a00660300008140d00080c070000b
:104fa800ba210a006603000000000600e20f500064
:104fb8001f003200e20f50000b003600e30f5000d4
:104fc80014003200e40f500010003a00baa00a00a2
:104fd800d20300006240600081407000ba210a00dc
:104fe800d203000000000600e10f500008003a005c
:104ff800baa00a00300300006240600081407000df
:10500800ba210a0030030000000006000000060074
:1050180000000600baa00a009c030000624060007d
:1050280081407000ba210a009c03000000000600bd
:10503800baa00a0066030000624060008140700068
:10504800ba210a006603000000000600e20f5000c3
:1050580030003200e20f50000e003600e30f50001f
:105068001a003200e40f500017003a00e28f500097
:1050780044003200e28f500030003600e38f5000c9
:105088004a003200e48f500036003a00d983a80065
:1050980000000600e10f50000a003a00e28f5000bd
:1050a80036003200e28f500012003600e38f5000c5
:1050b80036003200e48f500028003a003783a800f9
:1050c800000006000000060000000600e28f500005
:1050d80034003200e28f50000a003600e38f50009f
:1050e8002e003200e48f500020003a00a383a8006d
:1050f80000000600e18f50001d003a0037e3a800c9
:1051080000000600e18f500017003a00a3e3a80052
:1051180000000600e28f500026003200e28f5000a7
:105128000a003600e38f50001a003200e48f500066
:1051380010003a006d83a80000000600e18f5000bf
:105148000d003a00d9e3a80000000600e18f5000e6
:1051580003003a006de3a800000006000000060006
:10516800000006000000060000000600000006001f
:1051780000000600000006000000060037c3a80073
:1051880000000600d9c3a8000000060037a3a80045
:10519800000006006da3a80000000600a3a3a80055
:1051a80000000600a3c3a80000000600d9a3a800b9
:1051b800000006006dc3a80000000600e20f5000c2
:1051c80030003200e20f50000e003600e30f5000ae
:1051d8001a003200e40f500017003a00e28f500026
:1051e80044003200e28f500030003600e38f500058
:1051f8004a003200e48f500036003a00d983a900f3
:1052080000000600e10f50000a003a00e28f50004b
:1052180036003200e28f500012003600e38f500053
:1052280036003200e48f500028003a003783a90086
:10523800000006000000060000000600e28f500093
:1052480034003200e28f50000a003600e38f50002d
:105258002e003200e48f500020003a00a383a900fa
:1052680000000600e18f50001d003a0037e3a90056
:1052780000000600e18f500017003a00a3e3a900e0
:1052880000000600e28f500026003200e28f500036
:105298000a003600e38f50001a003200e48f5000f5
:1052a80010003a006d83a90000000600e18f50004d
:1052b8000d003a00d9e3a90000000600e18f500074
:1052c80003003a006de3a900000006000000060094
:1052d80000000600000006000000060000000600ae
:1052e80000000600000006000000060037c3a90001
:1052f80000000600d9c3a9000000060037a3a900d2
:10530800000006006da3a90000000600a3a3a900e1
:1053180000000600a3c3a90000000600d9a3a90045
:10532800000006006dc3a90000000600e20f50004f
:1053380030003200e20f50000e003600e30f50003c
:105348001a003200e40f500017003a00e28f5000b4
:1053580044003200e28f500030003600e38f5000e6
:105368004a003200e48f500036003a00d1e3a90029
:1053780000000600e10f50000a003a00e28f5000da
:1053880036003200e28f500012003600e38f5000e2
:1053980036003200e48f500028003a002fe3a900bd
:1053a800000006000000060000000600e28f500022
:1053b80034003200e28f50000a003600e38f5000bc
:1053c8002e003200e48f500020003a009be3a90031
:1053d80000000600e18f50001d003a002fc3a9000d
:1053e80000000600e18f500017003a009bc3a90097
:1053f80000000600e28f500026003200e28f5000c5
:105408000a003600e38f50001a003200e48f500083
:1054180010003a0065e3a90000000600e18f500083
:105428000d003a00d1c3a90000000600e18f50002a
:1054380003003a0065c3a90000000600000006004a
